{
  "_format": "hh-sol-artifact-1",
  "contractName": "PFLBloc",
  "sourceName": "src/backend/contracts/PFLBloc.sol",
  "abi": [
    {
      "inputs": [
        {
          "internalType": "address",
          "name": "_lpToken",
          "type": "address"
        },
        {
          "internalType": "address",
          "name": "_PFLToken",
          "type": "address"
        },
        {
          "internalType": "address",
          "name": "_strategyManager",
          "type": "address"
        }
      ],
      "stateMutability": "nonpayable",
      "type": "constructor"
    },
    {
      "anonymous": false,
      "inputs": [
        {
          "indexed": true,
          "internalType": "address",
          "name": "previousOwner",
          "type": "address"
        },
        {
          "indexed": true,
          "internalType": "address",
          "name": "newOwner",
          "type": "address"
        }
      ],
      "name": "OwnershipTransferred",
      "type": "event"
    },
    {
      "inputs": [],
      "name": "ERC20Token",
      "outputs": [
        {
          "internalType": "contract IToken",
          "name": "",
          "type": "address"
        }
      ],
      "stateMutability": "view",
      "type": "function"
    },
    {
      "inputs": [
        {
          "internalType": "bytes32",
          "name": "_protocol",
          "type": "bytes32"
        }
      ],
      "name": "accruedDebt",
      "outputs": [
        {
          "internalType": "uint256",
          "name": "",
          "type": "uint256"
        }
      ],
      "stateMutability": "view",
      "type": "function"
    },
    {
      "inputs": [
        {
          "internalType": "bytes32",
          "name": "_protocol",
          "type": "bytes32"
        },
        {
          "internalType": "uint256",
          "name": "_amount",
          "type": "uint256"
        }
      ],
      "name": "addProfileBalance",
      "outputs": [],
      "stateMutability": "nonpayable",
      "type": "function"
    },
    {
      "inputs": [],
      "name": "cancelWithdraw",
      "outputs": [],
      "stateMutability": "nonpayable",
      "type": "function"
    },
    {
      "inputs": [
        {
          "internalType": "address",
          "name": "_staker",
          "type": "address"
        }
      ],
      "name": "claimFunds",
      "outputs": [],
      "stateMutability": "nonpayable",
      "type": "function"
    },
    {
      "inputs": [
        {
          "internalType": "bytes32",
          "name": "_protocol",
          "type": "bytes32"
        }
      ],
      "name": "coveredFunds",
      "outputs": [
        {
          "internalType": "uint256",
          "name": "",
          "type": "uint256"
        }
      ],
      "stateMutability": "view",
      "type": "function"
    },
    {
      "inputs": [
        {
          "internalType": "uint256",
          "name": "_amount",
          "type": "uint256"
        }
      ],
      "name": "depositStrategyManager",
      "outputs": [],
      "stateMutability": "nonpayable",
      "type": "function"
    },
    {
      "inputs": [
        {
          "internalType": "address",
          "name": "_staker",
          "type": "address"
        }
      ],
      "name": "getFunds",
      "outputs": [
        {
          "internalType": "uint256",
          "name": "",
          "type": "uint256"
        }
      ],
      "stateMutability": "view",
      "type": "function"
    },
    {
      "inputs": [],
      "name": "getTotalStakedFunds",
      "outputs": [
        {
          "internalType": "uint256",
          "name": "",
          "type": "uint256"
        }
      ],
      "stateMutability": "view",
      "type": "function"
    },
    {
      "inputs": [
        {
          "internalType": "bytes32",
          "name": "_protocol",
          "type": "bytes32"
        },
        {
          "internalType": "uint256",
          "name": "_amount",
          "type": "uint256"
        },
        {
          "internalType": "address",
          "name": "_payout",
          "type": "address"
        }
      ],
      "name": "insurancePayout",
      "outputs": [],
      "stateMutability": "nonpayable",
      "type": "function"
    },
    {
      "inputs": [],
      "name": "isOwner",
      "outputs": [
        {
          "internalType": "address",
          "name": "",
          "type": "address"
        }
      ],
      "stateMutability": "view",
      "type": "function"
    },
    {
      "inputs": [],
      "name": "lpToken",
      "outputs": [
        {
          "internalType": "contract ILPToken",
          "name": "",
          "type": "address"
        }
      ],
      "stateMutability": "view",
      "type": "function"
    },
    {
      "inputs": [],
      "name": "owner",
      "outputs": [
        {
          "internalType": "address",
          "name": "",
          "type": "address"
        }
      ],
      "stateMutability": "view",
      "type": "function"
    },
    {
      "inputs": [
        {
          "internalType": "bytes32",
          "name": "_protocol",
          "type": "bytes32"
        }
      ],
      "name": "payOffDebt",
      "outputs": [],
      "stateMutability": "nonpayable",
      "type": "function"
    },
    {
      "inputs": [
        {
          "internalType": "bytes32",
          "name": "_protocol",
          "type": "bytes32"
        }
      ],
      "name": "premiumLastPaid",
      "outputs": [
        {
          "internalType": "uint256",
          "name": "",
          "type": "uint256"
        }
      ],
      "stateMutability": "view",
      "type": "function"
    },
    {
      "inputs": [
        {
          "internalType": "bytes32",
          "name": "_protocol",
          "type": "bytes32"
        }
      ],
      "name": "premiumPerBlock",
      "outputs": [
        {
          "internalType": "uint256",
          "name": "",
          "type": "uint256"
        }
      ],
      "stateMutability": "view",
      "type": "function"
    },
    {
      "inputs": [
        {
          "internalType": "bytes32",
          "name": "_protocol",
          "type": "bytes32"
        }
      ],
      "name": "profileBalance",
      "outputs": [
        {
          "internalType": "uint256",
          "name": "",
          "type": "uint256"
        }
      ],
      "stateMutability": "view",
      "type": "function"
    },
    {
      "inputs": [
        {
          "internalType": "bytes32",
          "name": "",
          "type": "bytes32"
        }
      ],
      "name": "profileBalances",
      "outputs": [
        {
          "internalType": "uint256",
          "name": "",
          "type": "uint256"
        }
      ],
      "stateMutability": "view",
      "type": "function"
    },
    {
      "inputs": [
        {
          "internalType": "bytes32",
          "name": "",
          "type": "bytes32"
        }
      ],
      "name": "profilePremiumLastPaid",
      "outputs": [
        {
          "internalType": "uint256",
          "name": "",
          "type": "uint256"
        }
      ],
      "stateMutability": "view",
      "type": "function"
    },
    {
      "inputs": [
        {
          "internalType": "bytes32",
          "name": "",
          "type": "bytes32"
        }
      ],
      "name": "profiles",
      "outputs": [
        {
          "internalType": "uint256",
          "name": "maxFundsCovered",
          "type": "uint256"
        },
        {
          "internalType": "uint256",
          "name": "percentagePremiumPerBlock",
          "type": "uint256"
        }
      ],
      "stateMutability": "view",
      "type": "function"
    },
    {
      "inputs": [
        {
          "internalType": "bytes32",
          "name": "_protocol",
          "type": "bytes32"
        }
      ],
      "name": "protocolCovered",
      "outputs": [
        {
          "internalType": "bool",
          "name": "",
          "type": "bool"
        }
      ],
      "stateMutability": "view",
      "type": "function"
    },
    {
      "inputs": [
        {
          "internalType": "uint256",
          "name": "",
          "type": "uint256"
        }
      ],
      "name": "protocols",
      "outputs": [
        {
          "internalType": "bytes32",
          "name": "",
          "type": "bytes32"
        }
      ],
      "stateMutability": "view",
      "type": "function"
    },
    {
      "inputs": [
        {
          "internalType": "bytes32",
          "name": "",
          "type": "bytes32"
        }
      ],
      "name": "protocolsCovered",
      "outputs": [
        {
          "internalType": "bool",
          "name": "",
          "type": "bool"
        }
      ],
      "stateMutability": "view",
      "type": "function"
    },
    {
      "inputs": [],
      "name": "redirectStakeToStrategy",
      "outputs": [
        {
          "internalType": "bool",
          "name": "",
          "type": "bool"
        }
      ],
      "stateMutability": "view",
      "type": "function"
    },
    {
      "inputs": [
        {
          "internalType": "bytes32",
          "name": "_protocol",
          "type": "bytes32"
        },
        {
          "internalType": "uint256",
          "name": "_index",
          "type": "uint256"
        },
        {
          "internalType": "address",
          "name": "_balanceReceiver",
          "type": "address"
        }
      ],
      "name": "removeProtocol",
      "outputs": [],
      "stateMutability": "nonpayable",
      "type": "function"
    },
    {
      "inputs": [],
      "name": "renounceOwnership",
      "outputs": [],
      "stateMutability": "nonpayable",
      "type": "function"
    },
    {
      "inputs": [
        {
          "internalType": "bool",
          "name": "_redirect",
          "type": "bool"
        }
      ],
      "name": "setRedirectStakeToStrategy",
      "outputs": [],
      "stateMutability": "nonpayable",
      "type": "function"
    },
    {
      "inputs": [
        {
          "internalType": "address",
          "name": "_strategyManager",
          "type": "address"
        }
      ],
      "name": "setStrategyManager",
      "outputs": [],
      "stateMutability": "nonpayable",
      "type": "function"
    },
    {
      "inputs": [
        {
          "internalType": "uint256",
          "name": "_timelock",
          "type": "uint256"
        }
      ],
      "name": "setTimelock",
      "outputs": [],
      "stateMutability": "nonpayable",
      "type": "function"
    },
    {
      "inputs": [
        {
          "internalType": "uint256",
          "name": "_amount",
          "type": "uint256"
        }
      ],
      "name": "stakeFunds",
      "outputs": [],
      "stateMutability": "nonpayable",
      "type": "function"
    },
    {
      "inputs": [
        {
          "internalType": "address",
          "name": "",
          "type": "address"
        }
      ],
      "name": "stakesWithdraw",
      "outputs": [
        {
          "internalType": "uint256",
          "name": "blockInitiated",
          "type": "uint256"
        },
        {
          "internalType": "uint256",
          "name": "stake",
          "type": "uint256"
        }
      ],
      "stateMutability": "view",
      "type": "function"
    },
    {
      "inputs": [],
      "name": "strategyManager",
      "outputs": [
        {
          "internalType": "contract IStrategyManager",
          "name": "",
          "type": "address"
        }
      ],
      "stateMutability": "view",
      "type": "function"
    },
    {
      "inputs": [],
      "name": "totalLPTokens",
      "outputs": [
        {
          "internalType": "uint256",
          "name": "",
          "type": "uint256"
        }
      ],
      "stateMutability": "view",
      "type": "function"
    },
    {
      "inputs": [],
      "name": "totalStaked",
      "outputs": [
        {
          "internalType": "uint256",
          "name": "",
          "type": "uint256"
        }
      ],
      "stateMutability": "view",
      "type": "function"
    },
    {
      "inputs": [
        {
          "internalType": "address",
          "name": "newOwner",
          "type": "address"
        }
      ],
      "name": "transferOwnership",
      "outputs": [],
      "stateMutability": "nonpayable",
      "type": "function"
    },
    {
      "inputs": [
        {
          "internalType": "bytes32",
          "name": "_protocol",
          "type": "bytes32"
        },
        {
          "internalType": "uint256",
          "name": "_maxFundsCovered",
          "type": "uint256"
        },
        {
          "internalType": "uint256",
          "name": "_percentagePremiumPerBlock",
          "type": "uint256"
        },
        {
          "internalType": "uint256",
          "name": "_premiumLastPaid",
          "type": "uint256"
        }
      ],
      "name": "updateProfiles",
      "outputs": [],
      "stateMutability": "nonpayable",
      "type": "function"
    },
    {
      "inputs": [
        {
          "internalType": "uint256",
          "name": "_amount",
          "type": "uint256"
        }
      ],
      "name": "withdrawStake",
      "outputs": [],
      "stateMutability": "nonpayable",
      "type": "function"
    },
    {
      "inputs": [
        {
          "internalType": "uint256",
          "name": "_amount",
          "type": "uint256"
        }
      ],
      "name": "withdrawStrategyManager",
      "outputs": [],
      "stateMutability": "nonpayable",
      "type": "function"
    }
  ],
  "bytecode": "0x60806040523480156200001157600080fd5b5060405162003cb038038062003cb0833981810160405260608110156200003757600080fd5b8101908080519060200190929190805190602001909291908051906020019092919050505060006200006e620001d860201b60201c565b9050806000806101000a81548173ffffffffffffffffffffffffffffffffffffffff021916908373ffffffffffffffffffffffffffffffffffffffff1602179055508073ffffffffffffffffffffffffffffffffffffffff16600073ffffffffffffffffffffffffffffffffffffffff167f8be0079c531659141344cd1fd0a4f28419497f9722a3daafe3b4186f6b6457e060405160405180910390a35082600260006101000a81548173ffffffffffffffffffffffffffffffffffffffff021916908373ffffffffffffffffffffffffffffffffffffffff16021790555081600360006101000a81548173ffffffffffffffffffffffffffffffffffffffff021916908373ffffffffffffffffffffffffffffffffffffffff16021790555080600160006101000a81548173ffffffffffffffffffffffffffffffffffffffff021916908373ffffffffffffffffffffffffffffffffffffffff160217905550505050620001e0565b600033905090565b613ac080620001f06000396000f3fe608060405234801561001057600080fd5b50600436106102325760003560e01c806384b7682411610130578063cddabc33116100b8578063e6501b461161007c578063e6501b4614610960578063e77b44a5146109a2578063ef6283d9146109e4578063f2fde38b14610a02578063f6e6d78814610a4657610232565b8063cddabc3314610846578063d79e184814610888578063d7ef5e0f146108a8578063decebbce146108ea578063e2abad471461094257610232565b80638f32d59b116100ff5780638f32d59b1461070e578063a2af4a1a14610742578063a378d23b1461079a578063bc0e8aac146107d2578063c9c505071461081657610232565b806384b768241461064a57806389995f42146106545780638c396220146106985780638da5cb5b146106da57610232565b80634e3f7d69116101be578063693d0df211610182578063693d0df21461057c578063715018a6146105c0578063755bfd61146105ca5780637a80760e146105f8578063817b1cd21461062c57610232565b80634e3f7d691461044b57806352f33682146104795780635c966646146104c25780635e6ee3e8146105065780635fcbd2851461054857610232565b80632a132b0b116102055780632a132b0b1461033757806336e58dab1461037957806339b70e38146103a757806348a1b3be146103db5780634d831b231461041d57610232565b806305334471146102375780630fcdc1ff146102835780631e891c0a146102db57806325d5971f14610309575b600080fd5b6102816004803603608081101561024d57600080fd5b8101908080359060200190929190803590602001909291908035906020019092919080359060200190929190505050610aa5565b005b6102d96004803603606081101561029957600080fd5b810190808035906020019092919080359060200190929190803573ffffffffffffffffffffffffffffffffffffffff169060200190929190505050610ee6565b005b610307600480360360208110156102f157600080fd5b810190808035906020019092919050505061121c565b005b6103356004803603602081101561031f57600080fd5b81019080803590602001909291905050506112d5565b005b6103636004803603602081101561034d57600080fd5b8101908080359060200190929190505050611559565b6040518082815260200191505060405180910390f35b6103a56004803603602081101561038f57600080fd5b8101908080359060200190929190505050611571565b005b6103af61189d565b604051808273ffffffffffffffffffffffffffffffffffffffff16815260200191505060405180910390f35b610407600480360360208110156103f157600080fd5b81019080803590602001909291905050506118c3565b6040518082815260200191505060405180910390f35b6104496004803603602081101561043357600080fd5b81019080803590602001909291905050506118e0565b005b6104776004803603602081101561046157600080fd5b8101908080359060200190929190505050611960565b005b6104a56004803603602081101561048f57600080fd5b8101908080359060200190929190505050611a1b565b604051808381526020018281526020019250505060405180910390f35b610504600480360360208110156104d857600080fd5b81019080803573ffffffffffffffffffffffffffffffffffffffff169060200190929190505050611a3f565b005b6105326004803603602081101561051c57600080fd5b8101908080359060200190929190505050611b32565b6040518082815260200191505060405180910390f35b610550611b4f565b604051808273ffffffffffffffffffffffffffffffffffffffff16815260200191505060405180910390f35b6105be6004803603602081101561059257600080fd5b81019080803573ffffffffffffffffffffffffffffffffffffffff169060200190929190505050611b75565b005b6105c86120b4565b005b6105f6600480360360208110156105e057600080fd5b8101908080359060200190929190505050612221565b005b61060061222d565b604051808273ffffffffffffffffffffffffffffffffffffffff16815260200191505060405180910390f35b610634612253565b6040518082815260200191505060405180910390f35b610652612259565b005b6106806004803603602081101561066a57600080fd5b81019080803590602001909291905050506124f9565b60405180821515815260200191505060405180910390f35b6106c4600480360360208110156106ae57600080fd5b8101908080359060200190929190505050612523565b6040518082815260200191505060405180910390f35b6106e2612544565b604051808273ffffffffffffffffffffffffffffffffffffffff16815260200191505060405180910390f35b61071661256d565b604051808273ffffffffffffffffffffffffffffffffffffffff16815260200191505060405180910390f35b6107986004803603606081101561075857600080fd5b810190808035906020019092919080359060200190929190803573ffffffffffffffffffffffffffffffffffffffff16906020019092919050505061257c565b005b6107d0600480360360408110156107b057600080fd5b81019080803590602001909291908035906020019092919050505061292c565b005b6107fe600480360360208110156107e857600080fd5b8101908080359060200190929190505050612acb565b60405180821515815260200191505060405180910390f35b6108446004803603602081101561082c57600080fd5b81019080803515159060200190929190505050612aeb565b005b6108726004803603602081101561085c57600080fd5b8101908080359060200190929190505050612bb7565b6040518082815260200191505060405180910390f35b610890612c00565b60405180821515815260200191505060405180910390f35b6108d4600480360360208110156108be57600080fd5b8101908080359060200190929190505050612c13565b6040518082815260200191505060405180910390f35b61092c6004803603602081101561090057600080fd5b81019080803573ffffffffffffffffffffffffffffffffffffffff169060200190929190505050612cfc565b6040518082815260200191505060405180910390f35b61094a612e96565b6040518082815260200191505060405180910390f35b61098c6004803603602081101561097657600080fd5b8101908080359060200190929190505050612ea0565b6040518082815260200191505060405180910390f35b6109ce600480360360208110156109b857600080fd5b8101908080359060200190929190505050612eb8565b6040518082815260200191505060405180910390f35b6109ec612f37565b6040518082815260200191505060405180910390f35b610a4460048036036020811015610a1857600080fd5b81019080803573ffffffffffffffffffffffffffffffffffffffff169060200190929190505050612f3d565b005b610a8860048036036020811015610a5c57600080fd5b81019080803573ffffffffffffffffffffffffffffffffffffffff16906020019092919050505061312f565b604051808381526020018281526020019250505060405180910390f35b610aad613153565b73ffffffffffffffffffffffffffffffffffffffff16610acb612544565b73ffffffffffffffffffffffffffffffffffffffff1614610b54576040517f08c379a00000000000000000000000000000000000000000000000000000000081526004018080602001828103825260208152602001807f4f776e61626c653a2063616c6c6572206973206e6f7420746865206f776e657281525060200191505060405180910390fd5b6000801b841415610bcd576040517f08c379a00000000000000000000000000000000000000000000000000000000081526004018080602001828103825260108152602001807f496e76616c69642050726f746f636f6c0000000000000000000000000000000081525060200191505060405180910390fd5b6000831415610c44576040517f08c379a000000000000000000000000000000000000000000000000000000000815260040180806020018281038252600d8152602001807f496e76616c69642046756e64730000000000000000000000000000000000000081525060200191505060405180910390fd5b6000821415610cbb576040517f08c379a000000000000000000000000000000000000000000000000000000000815260040180806020018281038252600c8152602001807f496e76616c6964205269736b000000000000000000000000000000000000000081525060200191505060405180910390fd5b604051806040016040528084815260200183815250600960008681526020019081526020016000206000820151816000015560208201518160010155905050600a600085815260200190815260200160002060009054906101000a900460ff16610d75576001600a600086815260200190815260200160002060006101000a81548160ff02191690831515021790555060088490806001815401808255809150506001900390600052602060002001600090919091909150555b6000811415610e0c576000600b60008681526020019081526020016000205411610e07576040517f08c379a00000000000000000000000000000000000000000000000000000000081526004018080602001828103825260118152602001807f496e76616c6964206c617374207061696400000000000000000000000000000081525060200191505060405180910390fd5b610ee0565b7fffffffffffffffffffffffffffffffffffffffffffffffffffffffffffffffff811415610e515743600b600086815260200190815260200160002081905550610edf565b438110610ec6576040517f08c379a00000000000000000000000000000000000000000000000000000000081526004018080602001828103825260088152602001807f546f6f206869676800000000000000000000000000000000000000000000000081525060200191505060405180910390fd5b80600b6000868152602001908152602001600020819055505b5b50505050565b610eee613153565b73ffffffffffffffffffffffffffffffffffffffff16610f0c612544565b73ffffffffffffffffffffffffffffffffffffffff1614610f95576040517f08c379a00000000000000000000000000000000000000000000000000000000081526004018080602001828103825260208152602001807f4f776e61626c653a2063616c6c6572206973206e6f7420746865206f776e657281525060200191505060405180910390fd5b81610f9f84612c13565b1015611013576040517f08c379a00000000000000000000000000000000000000000000000000000000081526004018080602001828103825260158152602001807f496e73756666696369656e745f636f766572616765000000000000000000000081525060200191505060405180910390fd5b600360009054906101000a900473ffffffffffffffffffffffffffffffffffffffff1673ffffffffffffffffffffffffffffffffffffffff1663a9059cbb82846040518363ffffffff1660e01b8152600401808373ffffffffffffffffffffffffffffffffffffffff16815260200182815260200192505050602060405180830381600087803b1580156110a657600080fd5b505af11580156110ba573d6000803e3d6000fd5b505050506040513d60208110156110d057600080fd5b8101908080519060200190929190505050611153576040517f08c379a00000000000000000000000000000000000000000000000000000000081526004018080602001828103825260128152602001807f496e73756666696369656e745f46756e6473000000000000000000000000000081525060200191505060405180910390fd5b60008190508073ffffffffffffffffffffffffffffffffffffffff1663f340fa01600360009054906101000a900473ffffffffffffffffffffffffffffffffffffffff166040518263ffffffff1660e01b8152600401808273ffffffffffffffffffffffffffffffffffffffff168152602001915050600060405180830381600087803b1580156111e357600080fd5b505af11580156111f7573d6000803e3d6000fd5b505050506112108360065461315b90919063ffffffff16565b60068190555050505050565b611224613153565b73ffffffffffffffffffffffffffffffffffffffff16611242612544565b73ffffffffffffffffffffffffffffffffffffffff16146112cb576040517f08c379a00000000000000000000000000000000000000000000000000000000081526004018080602001828103825260208152602001807f4f776e61626c653a2063616c6c6572206973206e6f7420746865206f776e657281525060200191505060405180910390fd5b8060078190555050565b6000600d60003373ffffffffffffffffffffffffffffffffffffffff1673ffffffffffffffffffffffffffffffffffffffff168152602001908152602001600020600001541461138d576040517f08c379a000000000000000000000000000000000000000000000000000000000815260040180806020018281038252600f8152602001807f576974686472617720616374697665000000000000000000000000000000000081525060200191505060405180910390fd5b600260009054906101000a900473ffffffffffffffffffffffffffffffffffffffff1673ffffffffffffffffffffffffffffffffffffffff166323b872dd3330846040518463ffffffff1660e01b8152600401808473ffffffffffffffffffffffffffffffffffffffff1681526020018373ffffffffffffffffffffffffffffffffffffffff1681526020018281526020019350505050602060405180830381600087803b15801561143e57600080fd5b505af1158015611452573d6000803e3d6000fd5b505050506040513d602081101561146857600080fd5b81019080805190602001909291905050506114eb576040517f08c379a000000000000000000000000000000000000000000000000000000000815260040180806020018281038252600f8152602001807f5472616e73666572206661696c6564000000000000000000000000000000000081525060200191505060405180910390fd5b604051806040016040528043815260200182815250600d60003373ffffffffffffffffffffffffffffffffffffffff1673ffffffffffffffffffffffffffffffffffffffff168152602001908152602001600020600082015181600001556020820151816001015590505050565b600b6020528060005260406000206000915090505481565b600360009054906101000a900473ffffffffffffffffffffffffffffffffffffffff1673ffffffffffffffffffffffffffffffffffffffff166323b872dd3330846040518463ffffffff1660e01b8152600401808473ffffffffffffffffffffffffffffffffffffffff1681526020018373ffffffffffffffffffffffffffffffffffffffff1681526020018281526020019350505050602060405180830381600087803b15801561162257600080fd5b505af1158015611636573d6000803e3d6000fd5b505050506040513d602081101561164c57600080fd5b81019080805190602001909291905050506116cf576040517f08c379a00000000000000000000000000000000000000000000000000000000081526004018080602001828103825260128152602001807f496e73756666696369656e742066756e6473000000000000000000000000000081525060200191505060405180910390fd5b6116e4816004546131de90919063ffffffff16565b6004819055506000600260009054906101000a900473ffffffffffffffffffffffffffffffffffffffff1673ffffffffffffffffffffffffffffffffffffffff166318160ddd6040518163ffffffff1660e01b815260040160206040518083038186803b15801561175457600080fd5b505afa158015611768573d6000803e3d6000fd5b505050506040513d602081101561177e57600080fd5b810190808051906020019092919050505090506000808214156117a3578290506117d2565b6117cf6117ae612e96565b6117c1848661326690919063ffffffff16565b6132ec90919063ffffffff16565b90505b6117e7836006546131de90919063ffffffff16565b600681905550600260009054906101000a900473ffffffffffffffffffffffffffffffffffffffff1673ffffffffffffffffffffffffffffffffffffffff166340c10f1933836040518363ffffffff1660e01b8152600401808373ffffffffffffffffffffffffffffffffffffffff16815260200182815260200192505050600060405180830381600087803b15801561188057600080fd5b505af1158015611894573d6000803e3d6000fd5b50505050505050565b600160009054906101000a900473ffffffffffffffffffffffffffffffffffffffff1681565b6000600b6000838152602001908152602001600020549050919050565b6118eb816001613375565b61195d576040517f08c379a00000000000000000000000000000000000000000000000000000000081526004018080602001828103825260128152602001807f496e73756666696369656e742066756e6473000000000000000000000000000081525060200191505060405180910390fd5b50565b611968613153565b73ffffffffffffffffffffffffffffffffffffffff16611986612544565b73ffffffffffffffffffffffffffffffffffffffff1614611a0f576040517f08c379a00000000000000000000000000000000000000000000000000000000081526004018080602001828103825260208152602001807f4f776e61626c653a2063616c6c6572206973206e6f7420746865206f776e657281525060200191505060405180910390fd5b611a1881613424565b50565b60096020528060005260406000206000915090508060000154908060010154905082565b611a47613153565b73ffffffffffffffffffffffffffffffffffffffff16611a65612544565b73ffffffffffffffffffffffffffffffffffffffff1614611aee576040517f08c379a00000000000000000000000000000000000000000000000000000000081526004018080602001828103825260208152602001807f4f776e61626c653a2063616c6c6572206973206e6f7420746865206f776e657281525060200191505060405180910390fd5b80600160006101000a81548173ffffffffffffffffffffffffffffffffffffffff021916908373ffffffffffffffffffffffffffffffffffffffff16021790555050565b6000600c6000838152602001908152602001600020549050919050565b600260009054906101000a900473ffffffffffffffffffffffffffffffffffffffff1681565b611b7d613a0f565b600d60008373ffffffffffffffffffffffffffffffffffffffff1673ffffffffffffffffffffffffffffffffffffffff168152602001908152602001600020604051806040016040529081600082015481526020016001820154815250509050600081600001511415611c58576040517f08c379a00000000000000000000000000000000000000000000000000000000081526004018080602001828103825260118152602001807f576974686472617720696e61637469766500000000000000000000000000000081525060200191505060405180910390fd5b43611c7260075483600001516131de90919063ffffffff16565b1115611ce6576040517f08c379a000000000000000000000000000000000000000000000000000000000815260040180806020018281038252600f8152602001807f74696d656c6f636b20616374697665000000000000000000000000000000000081525060200191505060405180910390fd5b611cf0600061350f565b6000611dc4600260009054906101000a900473ffffffffffffffffffffffffffffffffffffffff1673ffffffffffffffffffffffffffffffffffffffff166318160ddd6040518163ffffffff1660e01b815260040160206040518083038186803b158015611d5d57600080fd5b505afa158015611d71573d6000803e3d6000fd5b505050506040513d6020811015611d8757600080fd5b8101908080519060200190929190505050611db6611da3612e96565b856020015161326690919063ffffffff16565b6132ec90919063ffffffff16565b9050611dd38260200151613552565b611de3611dde612e96565b613552565b611ec46040518060400160405280600281526020017f4c50000000000000000000000000000000000000000000000000000000000000815250600260009054906101000a900473ffffffffffffffffffffffffffffffffffffffff1673ffffffffffffffffffffffffffffffffffffffff166318160ddd6040518163ffffffff1660e01b815260040160206040518083038186803b158015611e8457600080fd5b505afa158015611e98573d6000803e3d6000fd5b505050506040513d6020811015611eae57600080fd5b81019080805190602001909291905050506135eb565b600654811115611ef057611eeb611ee66006548361315b90919063ffffffff16565b613424565b611f31565b600360149054906101000a900460ff168015611f0d575060065481105b15611f3057611f2f611f2a8260065461315b90919063ffffffff16565b6136f2565b5b5b600360009054906101000a900473ffffffffffffffffffffffffffffffffffffffff1673ffffffffffffffffffffffffffffffffffffffff1663a9059cbb84836040518363ffffffff1660e01b8152600401808373ffffffffffffffffffffffffffffffffffffffff16815260200182815260200192505050602060405180830381600087803b158015611fc457600080fd5b505af1158015611fd8573d6000803e3d6000fd5b505050506040513d6020811015611fee57600080fd5b810190808051906020019092919050505050600260009054906101000a900473ffffffffffffffffffffffffffffffffffffffff1673ffffffffffffffffffffffffffffffffffffffff16639dc29fac3084602001516040518363ffffffff1660e01b8152600401808373ffffffffffffffffffffffffffffffffffffffff16815260200182815260200192505050600060405180830381600087803b15801561209757600080fd5b505af11580156120ab573d6000803e3d6000fd5b50505050505050565b6120bc613153565b73ffffffffffffffffffffffffffffffffffffffff166120da612544565b73ffffffffffffffffffffffffffffffffffffffff1614612163576040517f08c379a00000000000000000000000000000000000000000000000000000000081526004018080602001828103825260208152602001807f4f776e61626c653a2063616c6c6572206973206e6f7420746865206f776e657281525060200191505060405180910390fd5b600073ffffffffffffffffffffffffffffffffffffffff1660008054906101000a900473ffffffffffffffffffffffffffffffffffffffff1673ffffffffffffffffffffffffffffffffffffffff167f8be0079c531659141344cd1fd0a4f28419497f9722a3daafe3b4186f6b6457e060405160405180910390a360008060006101000a81548173ffffffffffffffffffffffffffffffffffffffff021916908373ffffffffffffffffffffffffffffffffffffffff160217905550565b61222a816136f2565b50565b600360009054906101000a900473ffffffffffffffffffffffffffffffffffffffff1681565b60045481565b612261613a0f565b600d60003373ffffffffffffffffffffffffffffffffffffffff1673ffffffffffffffffffffffffffffffffffffffff16815260200190815260200160002060405180604001604052908160008201548152602001600182015481525050905060008160000151141561233c576040517f08c379a00000000000000000000000000000000000000000000000000000000081526004018080602001828103825260118152602001807f576974686472617720696e61637469766500000000000000000000000000000081525060200191505060405180910390fd5b4361235660075483600001516131de90919063ffffffff16565b116123c9576040517f08c379a00000000000000000000000000000000000000000000000000000000081526004018080602001828103825260108152602001807f54696d656c6f636b20457870697265640000000000000000000000000000000081525060200191505060405180910390fd5b600260009054906101000a900473ffffffffffffffffffffffffffffffffffffffff1673ffffffffffffffffffffffffffffffffffffffff1663a9059cbb3383602001516040518363ffffffff1660e01b8152600401808373ffffffffffffffffffffffffffffffffffffffff16815260200182815260200192505050602060405180830381600087803b15801561246057600080fd5b505af1158015612474573d6000803e3d6000fd5b505050506040513d602081101561248a57600080fd5b81019080805190602001909291905050506124a457600080fd5b600d60003373ffffffffffffffffffffffffffffffffffffffff1673ffffffffffffffffffffffffffffffffffffffff1681526020019081526020016000206000808201600090556001820160009055505050565b6000600a600083815260200190815260200160002060009054906101000a900460ff169050919050565b6008818154811061253057fe5b906000526020600020016000915090505481565b60008060009054906101000a900473ffffffffffffffffffffffffffffffffffffffff16905090565b6000612577612544565b905090565b612584613153565b73ffffffffffffffffffffffffffffffffffffffff166125a2612544565b73ffffffffffffffffffffffffffffffffffffffff161461262b576040517f08c379a00000000000000000000000000000000000000000000000000000000081526004018080602001828103825260208152602001807f4f776e61626c653a2063616c6c6572206973206e6f7420746865206f776e657281525060200191505060405180910390fd5b826008838154811061263957fe5b9060005260206000200154146126b7576040517f08c379a000000000000000000000000000000000000000000000000000000000815260040180806020018281038252600d8152602001807f496e76616c696420696e6465780000000000000000000000000000000000000081525060200191505060405180910390fd5b600360009054906101000a900473ffffffffffffffffffffffffffffffffffffffff1673ffffffffffffffffffffffffffffffffffffffff166323b872dd3083600c6000888152602001908152602001600020546040518463ffffffff1660e01b8152600401808473ffffffffffffffffffffffffffffffffffffffff1681526020018373ffffffffffffffffffffffffffffffffffffffff1681526020018281526020019350505050602060405180830381600087803b15801561277b57600080fd5b505af115801561278f573d6000803e3d6000fd5b505050506040513d60208110156127a557600080fd5b8101908080519060200190929190505050612828576040517f08c379a00000000000000000000000000000000000000000000000000000000081526004018080602001828103825260128152602001807f496e73756666696369656e742046756e6473000000000000000000000000000081525060200191505060405180910390fd5b6009600084815260200190815260200160002060008082016000905560018201600090555050600c600084815260200190815260200160002060009055600b6000848152602001908152602001600020600090556000600a600085815260200190815260200160002060006101000a81548160ff0219169083151502179055506008600160088054905003815481106128bd57fe5b9060005260206000200154600883815481106128d557fe5b90600052602060002001819055506008600160088054905003815481106128f857fe5b9060005260206000200160009055600880548061291157fe5b60019003818190600052602060002001600090559055505050565b600360009054906101000a900473ffffffffffffffffffffffffffffffffffffffff1673ffffffffffffffffffffffffffffffffffffffff166323b872dd3330846040518463ffffffff1660e01b8152600401808473ffffffffffffffffffffffffffffffffffffffff1681526020018373ffffffffffffffffffffffffffffffffffffffff1681526020018281526020019350505050602060405180830381600087803b1580156129dd57600080fd5b505af11580156129f1573d6000803e3d6000fd5b505050506040513d6020811015612a0757600080fd5b8101908080519060200190929190505050612a8a576040517f08c379a00000000000000000000000000000000000000000000000000000000081526004018080602001828103825260128152602001807f496e73756666696369656e742066756e6473000000000000000000000000000081525060200191505060405180910390fd5b612ab081600c6000858152602001908152602001600020546131de90919063ffffffff16565b600c6000848152602001908152602001600020819055505050565b600a6020528060005260406000206000915054906101000a900460ff1681565b612af3613153565b73ffffffffffffffffffffffffffffffffffffffff16612b11612544565b73ffffffffffffffffffffffffffffffffffffffff1614612b9a576040517f08c379a00000000000000000000000000000000000000000000000000000000081526004018080602001828103825260208152602001807f4f776e61626c653a2063616c6c6572206973206e6f7420746865206f776e657281525060200191505060405180910390fd5b80600360146101000a81548160ff02191690831515021790555050565b6000612bf9612bc583612eb8565b612beb600b6000868152602001908152602001600020544361315b90919063ffffffff16565b61326690919063ffffffff16565b9050919050565b600360149054906101000a900460ff1681565b6000612c1d613a29565b600960008481526020019081526020016000206040518060400160405290816000820154815260200160018201548152505090506000816000015111612ccb576040517f08c379a00000000000000000000000000000000000000000000000000000000081526004018080602001828103825260118152602001807f50726f66696c65206e6f7420666f756e6400000000000000000000000000000081525060200191505060405180910390fd5b8060000151612cd8612e96565b1115612ceb578060000151915050612cf7565b612cf3612e96565b9150505b919050565b6000612e8f600260009054906101000a900473ffffffffffffffffffffffffffffffffffffffff1673ffffffffffffffffffffffffffffffffffffffff166318160ddd6040518163ffffffff1660e01b815260040160206040518083038186803b158015612d6957600080fd5b505afa158015612d7d573d6000803e3d6000fd5b505050506040513d6020811015612d9357600080fd5b8101908080519060200190929190505050612e81612daf612e96565b600260009054906101000a900473ffffffffffffffffffffffffffffffffffffffff1673ffffffffffffffffffffffffffffffffffffffff166370a08231876040518263ffffffff1660e01b8152600401808273ffffffffffffffffffffffffffffffffffffffff16815260200191505060206040518083038186803b158015612e3857600080fd5b505afa158015612e4c573d6000803e3d6000fd5b505050506040513d6020811015612e6257600080fd5b810190808051906020019092919050505061326690919063ffffffff16565b6132ec90919063ffffffff16565b9050919050565b6000600654905090565b600c6020528060005260406000206000915090505481565b6000612ec2613a29565b60096000848152602001908152602001600020604051806040016040529081600082015481526020016001820154815250509050612f2f670de0b6b3a7640000612f218360200151612f1387612c13565b61326690919063ffffffff16565b6132ec90919063ffffffff16565b915050919050565b60055481565b612f45613153565b73ffffffffffffffffffffffffffffffffffffffff16612f63612544565b73ffffffffffffffffffffffffffffffffffffffff1614612fec576040517f08c379a00000000000000000000000000000000000000000000000000000000081526004018080602001828103825260208152602001807f4f776e61626c653a2063616c6c6572206973206e6f7420746865206f776e657281525060200191505060405180910390fd5b600073ffffffffffffffffffffffffffffffffffffffff168173ffffffffffffffffffffffffffffffffffffffff161415613072576040517f08c379a0000000000000000000000000000000000000000000000000000000008152600401808060200182810382526026815260200180613a446026913960400191505060405180910390fd5b8073ffffffffffffffffffffffffffffffffffffffff1660008054906101000a900473ffffffffffffffffffffffffffffffffffffffff1673ffffffffffffffffffffffffffffffffffffffff167f8be0079c531659141344cd1fd0a4f28419497f9722a3daafe3b4186f6b6457e060405160405180910390a3806000806101000a81548173ffffffffffffffffffffffffffffffffffffffff021916908373ffffffffffffffffffffffffffffffffffffffff16021790555050565b600d6020528060005260406000206000915090508060000154908060010154905082565b600033905090565b6000828211156131d3576040517f08c379a000000000000000000000000000000000000000000000000000000000815260040180806020018281038252601e8152602001807f536166654d6174683a207375627472616374696f6e206f766572666c6f77000081525060200191505060405180910390fd5b818303905092915050565b60008082840190508381101561325c576040517f08c379a000000000000000000000000000000000000000000000000000000000815260040180806020018281038252601b8152602001807f536166654d6174683a206164646974696f6e206f766572666c6f77000000000081525060200191505060405180910390fd5b8091505092915050565b60008083141561327957600090506132e6565b600082840290508284828161328a57fe5b04146132e1576040517f08c379a0000000000000000000000000000000000000000000000000000000008152600401808060200182810382526021815260200180613a6a6021913960400191505060405180910390fd5b809150505b92915050565b6000808211613363576040517f08c379a000000000000000000000000000000000000000000000000000000000815260040180806020018281038252601a8152602001807f536166654d6174683a206469766973696f6e206279207a65726f00000000000081525060200191505060405180910390fd5b81838161336c57fe5b04905092915050565b60008061338184612bb7565b9050600c6000858152602001908152602001600020548111156133a857600091505061341e565b6133ce81600c60008781526020019081526020016000205461315b90919063ffffffff16565b600c6000868152602001908152602001600020819055506133fa816006546131de90919063ffffffff16565b60068190555043600b60008681526020019081526020016000208190555060019150505b92915050565b600160009054906101000a900473ffffffffffffffffffffffffffffffffffffffff1673ffffffffffffffffffffffffffffffffffffffff1663f3fef3a3600260009054906101000a900473ffffffffffffffffffffffffffffffffffffffff16836040518363ffffffff1660e01b8152600401808373ffffffffffffffffffffffffffffffffffffffff16815260200182815260200192505050600060405180830381600087803b1580156134d957600080fd5b505af11580156134ed573d6000803e3d6000fd5b50505050613506816006546131de90919063ffffffff16565b60068190555050565b60005b60088054905081101561354e576135406008828154811061352f57fe5b906000526020600020015483613375565b508080600101915050613512565b5050565b6135e881604051602401808281526020019150506040516020818303038152906040527ff5b1bba9000000000000000000000000000000000000000000000000000000007bffffffffffffffffffffffffffffffffffffffffffffffffffffffff19166020820180517bffffffffffffffffffffffffffffffffffffffffffffffffffffffff83818316178352505050506139e6565b50565b6136ee82826040516024018080602001838152602001828103825284818151815260200191508051906020019080838360005b8381101561363957808201518184015260208101905061361e565b50505050905090810190601f1680156136665780820380516001836020036101000a031916815260200191505b5093505050506040516020818303038152906040527f9710a9d0000000000000000000000000000000000000000000000000000000007bffffffffffffffffffffffffffffffffffffffffffffffffffffffff19166020820180517bffffffffffffffffffffffffffffffffffffffffffffffffffffffff83818316178352505050506139e6565b5050565b6136fa613153565b73ffffffffffffffffffffffffffffffffffffffff16613718612544565b73ffffffffffffffffffffffffffffffffffffffff16146137a1576040517f08c379a00000000000000000000000000000000000000000000000000000000081526004018080602001828103825260208152602001807f4f776e61626c653a2063616c6c6572206973206e6f7420746865206f776e657281525060200191505060405180910390fd5b600260009054906101000a900473ffffffffffffffffffffffffffffffffffffffff1673ffffffffffffffffffffffffffffffffffffffff1663a9059cbb600160009054906101000a900473ffffffffffffffffffffffffffffffffffffffff16836040518363ffffffff1660e01b8152600401808373ffffffffffffffffffffffffffffffffffffffff16815260200182815260200192505050602060405180830381600087803b15801561385657600080fd5b505af115801561386a573d6000803e3d6000fd5b505050506040513d602081101561388057600080fd5b8101908080519060200190929190505050613903576040517f08c379a00000000000000000000000000000000000000000000000000000000081526004018080602001828103825260128152602001807f496e73756666696369656e742066756e6473000000000000000000000000000081525060200191505060405180910390fd5b6139188160065461315b90919063ffffffff16565b600681905550600160009054906101000a900473ffffffffffffffffffffffffffffffffffffffff1673ffffffffffffffffffffffffffffffffffffffff1663f340fa01600260009054906101000a900473ffffffffffffffffffffffffffffffffffffffff166040518263ffffffff1660e01b8152600401808273ffffffffffffffffffffffffffffffffffffffff168152602001915050600060405180830381600087803b1580156139cb57600080fd5b505af11580156139df573d6000803e3d6000fd5b5050505050565b60008151905060006a636f6e736f6c652e6c6f679050602083016000808483855afa5050505050565b604051806040016040528060008152602001600081525090565b60405180604001604052806000815260200160008152509056fe4f776e61626c653a206e6577206f776e657220697320746865207a65726f2061646472657373536166654d6174683a206d756c7469706c69636174696f6e206f766572666c6f77a2646970667358221220d70e84914c973ba384a2a38de83e8d0ae89a868b786cb19c703ccd6bac88783264736f6c63430007030033",
  "linkReferences": {},
  "deployedLinkReferences": {}
}