{
  "_format": "hh-sol-artifact-1",
  "contractName": "PFLBloc",
  "sourceName": "src/backend/contracts/PFLBloc.sol",
  "abi": [
    {
      "inputs": [
        {
          "internalType": "contract ILPToken",
          "name": "_lpToken",
          "type": "address"
        },
        {
          "internalType": "contract IToken",
          "name": "_PFLToken",
          "type": "address"
        }
      ],
      "stateMutability": "nonpayable",
      "type": "constructor"
    },
    {
      "anonymous": false,
      "inputs": [
        {
          "indexed": true,
          "internalType": "address",
          "name": "previousOwner",
          "type": "address"
        },
        {
          "indexed": true,
          "internalType": "address",
          "name": "newOwner",
          "type": "address"
        }
      ],
      "name": "OwnershipTransferred",
      "type": "event"
    },
    {
      "inputs": [],
      "name": "ERC20Token",
      "outputs": [
        {
          "internalType": "contract IToken",
          "name": "",
          "type": "address"
        }
      ],
      "stateMutability": "view",
      "type": "function"
    },
    {
      "inputs": [
        {
          "internalType": "bytes32",
          "name": "_protocol",
          "type": "bytes32"
        },
        {
          "internalType": "uint256",
          "name": "_amount",
          "type": "uint256"
        }
      ],
      "name": "addProfileBalance",
      "outputs": [],
      "stateMutability": "nonpayable",
      "type": "function"
    },
    {
      "inputs": [],
      "name": "cancelWithdraw",
      "outputs": [],
      "stateMutability": "nonpayable",
      "type": "function"
    },
    {
      "inputs": [
        {
          "internalType": "address",
          "name": "_staker",
          "type": "address"
        }
      ],
      "name": "claimFunds",
      "outputs": [],
      "stateMutability": "nonpayable",
      "type": "function"
    },
    {
      "inputs": [
        {
          "internalType": "bytes32",
          "name": "_protocol",
          "type": "bytes32"
        }
      ],
      "name": "coveredFunds",
      "outputs": [
        {
          "internalType": "uint256",
          "name": "",
          "type": "uint256"
        }
      ],
      "stateMutability": "view",
      "type": "function"
    },
    {
      "inputs": [
        {
          "internalType": "address",
          "name": "_staker",
          "type": "address"
        }
      ],
      "name": "getFunds",
      "outputs": [
        {
          "internalType": "uint256",
          "name": "",
          "type": "uint256"
        }
      ],
      "stateMutability": "view",
      "type": "function"
    },
    {
      "inputs": [],
      "name": "getTotalStakedFunds",
      "outputs": [
        {
          "internalType": "uint256",
          "name": "",
          "type": "uint256"
        }
      ],
      "stateMutability": "view",
      "type": "function"
    },
    {
      "inputs": [],
      "name": "isOwner",
      "outputs": [
        {
          "internalType": "address",
          "name": "",
          "type": "address"
        }
      ],
      "stateMutability": "view",
      "type": "function"
    },
    {
      "inputs": [],
      "name": "lpToken",
      "outputs": [
        {
          "internalType": "contract ILPToken",
          "name": "",
          "type": "address"
        }
      ],
      "stateMutability": "view",
      "type": "function"
    },
    {
      "inputs": [],
      "name": "owner",
      "outputs": [
        {
          "internalType": "address",
          "name": "",
          "type": "address"
        }
      ],
      "stateMutability": "view",
      "type": "function"
    },
    {
      "inputs": [
        {
          "internalType": "bytes32",
          "name": "_protocol",
          "type": "bytes32"
        }
      ],
      "name": "premiumLastPaid",
      "outputs": [
        {
          "internalType": "uint256",
          "name": "",
          "type": "uint256"
        }
      ],
      "stateMutability": "view",
      "type": "function"
    },
    {
      "inputs": [
        {
          "internalType": "bytes32",
          "name": "",
          "type": "bytes32"
        }
      ],
      "name": "profileBalances",
      "outputs": [
        {
          "internalType": "uint256",
          "name": "",
          "type": "uint256"
        }
      ],
      "stateMutability": "view",
      "type": "function"
    },
    {
      "inputs": [
        {
          "internalType": "bytes32",
          "name": "",
          "type": "bytes32"
        }
      ],
      "name": "profilePremiumLastPaid",
      "outputs": [
        {
          "internalType": "uint256",
          "name": "",
          "type": "uint256"
        }
      ],
      "stateMutability": "view",
      "type": "function"
    },
    {
      "inputs": [
        {
          "internalType": "bytes32",
          "name": "",
          "type": "bytes32"
        }
      ],
      "name": "profiles",
      "outputs": [
        {
          "internalType": "uint256",
          "name": "maxFundsCovered",
          "type": "uint256"
        },
        {
          "internalType": "uint256",
          "name": "premiumPerBlock",
          "type": "uint256"
        }
      ],
      "stateMutability": "view",
      "type": "function"
    },
    {
      "inputs": [
        {
          "internalType": "bytes32",
          "name": "_protocol",
          "type": "bytes32"
        }
      ],
      "name": "protocolCovered",
      "outputs": [
        {
          "internalType": "bool",
          "name": "",
          "type": "bool"
        }
      ],
      "stateMutability": "view",
      "type": "function"
    },
    {
      "inputs": [
        {
          "internalType": "uint256",
          "name": "",
          "type": "uint256"
        }
      ],
      "name": "protocols",
      "outputs": [
        {
          "internalType": "bytes32",
          "name": "",
          "type": "bytes32"
        }
      ],
      "stateMutability": "view",
      "type": "function"
    },
    {
      "inputs": [
        {
          "internalType": "bytes32",
          "name": "",
          "type": "bytes32"
        }
      ],
      "name": "protocolsCovered",
      "outputs": [
        {
          "internalType": "bool",
          "name": "",
          "type": "bool"
        }
      ],
      "stateMutability": "view",
      "type": "function"
    },
    {
      "inputs": [
        {
          "internalType": "bytes32",
          "name": "_protocol",
          "type": "bytes32"
        },
        {
          "internalType": "uint256",
          "name": "_index",
          "type": "uint256"
        },
        {
          "internalType": "address",
          "name": "_balanceReceiver",
          "type": "address"
        }
      ],
      "name": "removeProtocol",
      "outputs": [],
      "stateMutability": "nonpayable",
      "type": "function"
    },
    {
      "inputs": [],
      "name": "renounceOwnership",
      "outputs": [],
      "stateMutability": "nonpayable",
      "type": "function"
    },
    {
      "inputs": [
        {
          "internalType": "uint256",
          "name": "_timelock",
          "type": "uint256"
        }
      ],
      "name": "setTimelock",
      "outputs": [],
      "stateMutability": "nonpayable",
      "type": "function"
    },
    {
      "inputs": [
        {
          "internalType": "uint256",
          "name": "_amount",
          "type": "uint256"
        }
      ],
      "name": "stakeFunds",
      "outputs": [],
      "stateMutability": "nonpayable",
      "type": "function"
    },
    {
      "inputs": [
        {
          "internalType": "address",
          "name": "",
          "type": "address"
        }
      ],
      "name": "stakesWithdraw",
      "outputs": [
        {
          "internalType": "uint256",
          "name": "blockInitiated",
          "type": "uint256"
        },
        {
          "internalType": "uint256",
          "name": "stake",
          "type": "uint256"
        }
      ],
      "stateMutability": "view",
      "type": "function"
    },
    {
      "inputs": [],
      "name": "totalLPTokens",
      "outputs": [
        {
          "internalType": "uint256",
          "name": "",
          "type": "uint256"
        }
      ],
      "stateMutability": "view",
      "type": "function"
    },
    {
      "inputs": [],
      "name": "totalStaked",
      "outputs": [
        {
          "internalType": "uint256",
          "name": "",
          "type": "uint256"
        }
      ],
      "stateMutability": "view",
      "type": "function"
    },
    {
      "inputs": [
        {
          "internalType": "address",
          "name": "newOwner",
          "type": "address"
        }
      ],
      "name": "transferOwnership",
      "outputs": [],
      "stateMutability": "nonpayable",
      "type": "function"
    },
    {
      "inputs": [
        {
          "internalType": "bytes32",
          "name": "_protocol",
          "type": "bytes32"
        },
        {
          "internalType": "uint256",
          "name": "_maxFundsCovered",
          "type": "uint256"
        },
        {
          "internalType": "uint256",
          "name": "_percentagePremiumPerBlock",
          "type": "uint256"
        },
        {
          "internalType": "uint256",
          "name": "_premiumLastPaid",
          "type": "uint256"
        }
      ],
      "name": "updateProfiles",
      "outputs": [],
      "stateMutability": "nonpayable",
      "type": "function"
    },
    {
      "inputs": [
        {
          "internalType": "uint256",
          "name": "_amount",
          "type": "uint256"
        }
      ],
      "name": "withdrawStake",
      "outputs": [],
      "stateMutability": "nonpayable",
      "type": "function"
    }
  ],
  "bytecode": "0x608060405234801561001057600080fd5b506040516200297a3803806200297a8339818101604052604081101561003557600080fd5b810190808051906020019092919080519060200190929190505050600061006061018760201b60201c565b9050806000806101000a81548173ffffffffffffffffffffffffffffffffffffffff021916908373ffffffffffffffffffffffffffffffffffffffff1602179055508073ffffffffffffffffffffffffffffffffffffffff16600073ffffffffffffffffffffffffffffffffffffffff167f8be0079c531659141344cd1fd0a4f28419497f9722a3daafe3b4186f6b6457e060405160405180910390a35081600160006101000a81548173ffffffffffffffffffffffffffffffffffffffff021916908373ffffffffffffffffffffffffffffffffffffffff16021790555080600260006101000a81548173ffffffffffffffffffffffffffffffffffffffff021916908373ffffffffffffffffffffffffffffffffffffffff160217905550505061018f565b600033905090565b6127db806200019f6000396000f3fe608060405234801561001057600080fd5b50600436106101a95760003560e01c806389995f42116100f9578063d7ef5e0f11610097578063e6501b4611610071578063e6501b46146106a9578063ef6283d9146106eb578063f2fde38b14610709578063f6e6d7881461074d576101a9565b8063d7ef5e0f146105f1578063decebbce14610633578063e2abad471461068b576101a9565b80638f32d59b116100d35780638f32d59b146104e9578063a2af4a1a1461051d578063a378d23b14610575578063bc0e8aac146105ad576101a9565b806389995f421461042f5780638c396220146104735780638da5cb5b146104b5576101a9565b806352f3368211610166578063715018a611610140578063715018a6146103c95780637a80760e146103d3578063817b1cd21461040757806384b7682414610425576101a9565b806352f33682146103085780635fcbd28514610351578063693d0df214610385576101a9565b806305334471146101ae5780631e891c0a146101fa57806325d5971f146102285780632a132b0b1461025657806336e58dab1461029857806348a1b3be146102c6575b600080fd5b6101f8600480360360808110156101c457600080fd5b81019080803590602001909291908035906020019092919080359060200190929190803590602001909291905050506107ac565b005b6102266004803603602081101561021057600080fd5b8101908080359060200190929190505050610bed565b005b6102546004803603602081101561023e57600080fd5b8101908080359060200190929190505050610ca6565b005b6102826004803603602081101561026c57600080fd5b8101908080359060200190929190505050610f2a565b6040518082815260200191505060405180910390f35b6102c4600480360360208110156102ae57600080fd5b8101908080359060200190929190505050610f42565b005b6102f2600480360360208110156102dc57600080fd5b810190808035906020019092919050505061126e565b6040518082815260200191505060405180910390f35b6103346004803603602081101561031e57600080fd5b810190808035906020019092919050505061128b565b604051808381526020018281526020019250505060405180910390f35b6103596112af565b604051808273ffffffffffffffffffffffffffffffffffffffff16815260200191505060405180910390f35b6103c76004803603602081101561039b57600080fd5b81019080803573ffffffffffffffffffffffffffffffffffffffff1690602001909291905050506112d5565b005b6103d161169f565b005b6103db61180c565b604051808273ffffffffffffffffffffffffffffffffffffffff16815260200191505060405180910390f35b61040f611832565b6040518082815260200191505060405180910390f35b61042d611838565b005b61045b6004803603602081101561044557600080fd5b8101908080359060200190929190505050611ad8565b60405180821515815260200191505060405180910390f35b61049f6004803603602081101561048957600080fd5b8101908080359060200190929190505050611b02565b6040518082815260200191505060405180910390f35b6104bd611b23565b604051808273ffffffffffffffffffffffffffffffffffffffff16815260200191505060405180910390f35b6104f1611b4c565b604051808273ffffffffffffffffffffffffffffffffffffffff16815260200191505060405180910390f35b6105736004803603606081101561053357600080fd5b810190808035906020019092919080359060200190929190803573ffffffffffffffffffffffffffffffffffffffff169060200190929190505050611b5b565b005b6105ab6004803603604081101561058b57600080fd5b810190808035906020019092919080359060200190929190505050611f0b565b005b6105d9600480360360208110156105c357600080fd5b81019080803590602001909291905050506120aa565b60405180821515815260200191505060405180910390f35b61061d6004803603602081101561060757600080fd5b81019080803590602001909291905050506120ca565b6040518082815260200191505060405180910390f35b6106756004803603602081101561064957600080fd5b81019080803573ffffffffffffffffffffffffffffffffffffffff1690602001909291905050506121b3565b6040518082815260200191505060405180910390f35b61069361234d565b6040518082815260200191505060405180910390f35b6106d5600480360360208110156106bf57600080fd5b8101908080359060200190929190505050612357565b6040518082815260200191505060405180910390f35b6106f361236f565b6040518082815260200191505060405180910390f35b61074b6004803603602081101561071f57600080fd5b81019080803573ffffffffffffffffffffffffffffffffffffffff169060200190929190505050612375565b005b61078f6004803603602081101561076357600080fd5b81019080803573ffffffffffffffffffffffffffffffffffffffff169060200190929190505050612567565b604051808381526020018281526020019250505060405180910390f35b6107b461258b565b73ffffffffffffffffffffffffffffffffffffffff166107d2611b23565b73ffffffffffffffffffffffffffffffffffffffff161461085b576040517f08c379a00000000000000000000000000000000000000000000000000000000081526004018080602001828103825260208152602001807f4f776e61626c653a2063616c6c6572206973206e6f7420746865206f776e657281525060200191505060405180910390fd5b6000801b8414156108d4576040517f08c379a00000000000000000000000000000000000000000000000000000000081526004018080602001828103825260108152602001807f496e76616c69642050726f746f636f6c0000000000000000000000000000000081525060200191505060405180910390fd5b600083141561094b576040517f08c379a000000000000000000000000000000000000000000000000000000000815260040180806020018281038252600d8152602001807f496e76616c69642046756e64730000000000000000000000000000000000000081525060200191505060405180910390fd5b60008214156109c2576040517f08c379a000000000000000000000000000000000000000000000000000000000815260040180806020018281038252600c8152602001807f496e76616c6964205269736b000000000000000000000000000000000000000081525060200191505060405180910390fd5b6040518060400160405280848152602001838152506008600086815260200190815260200160002060008201518160000155602082015181600101559050506009600085815260200190815260200160002060009054906101000a900460ff16610a7c5760016009600086815260200190815260200160002060006101000a81548160ff02191690831515021790555060078490806001815401808255809150506001900390600052602060002001600090919091909150555b6000811415610b13576000600a60008681526020019081526020016000205411610b0e576040517f08c379a00000000000000000000000000000000000000000000000000000000081526004018080602001828103825260118152602001807f496e76616c6964206c617374207061696400000000000000000000000000000081525060200191505060405180910390fd5b610be7565b7fffffffffffffffffffffffffffffffffffffffffffffffffffffffffffffffff811415610b585743600a600086815260200190815260200160002081905550610be6565b438110610bcd576040517f08c379a00000000000000000000000000000000000000000000000000000000081526004018080602001828103825260088152602001807f546f6f206869676800000000000000000000000000000000000000000000000081525060200191505060405180910390fd5b80600a6000868152602001908152602001600020819055505b5b50505050565b610bf561258b565b73ffffffffffffffffffffffffffffffffffffffff16610c13611b23565b73ffffffffffffffffffffffffffffffffffffffff1614610c9c576040517f08c379a00000000000000000000000000000000000000000000000000000000081526004018080602001828103825260208152602001807f4f776e61626c653a2063616c6c6572206973206e6f7420746865206f776e657281525060200191505060405180910390fd5b8060068190555050565b6000600c60003373ffffffffffffffffffffffffffffffffffffffff1673ffffffffffffffffffffffffffffffffffffffff1681526020019081526020016000206000015414610d5e576040517f08c379a000000000000000000000000000000000000000000000000000000000815260040180806020018281038252600f8152602001807f576974686472617720616374697665000000000000000000000000000000000081525060200191505060405180910390fd5b600160009054906101000a900473ffffffffffffffffffffffffffffffffffffffff1673ffffffffffffffffffffffffffffffffffffffff166323b872dd3330846040518463ffffffff1660e01b8152600401808473ffffffffffffffffffffffffffffffffffffffff1681526020018373ffffffffffffffffffffffffffffffffffffffff1681526020018281526020019350505050602060405180830381600087803b158015610e0f57600080fd5b505af1158015610e23573d6000803e3d6000fd5b505050506040513d6020811015610e3957600080fd5b8101908080519060200190929190505050610ebc576040517f08c379a000000000000000000000000000000000000000000000000000000000815260040180806020018281038252600f8152602001807f5472616e73666572206661696c6564000000000000000000000000000000000081525060200191505060405180910390fd5b604051806040016040528043815260200182815250600c60003373ffffffffffffffffffffffffffffffffffffffff1673ffffffffffffffffffffffffffffffffffffffff168152602001908152602001600020600082015181600001556020820151816001015590505050565b600a6020528060005260406000206000915090505481565b600260009054906101000a900473ffffffffffffffffffffffffffffffffffffffff1673ffffffffffffffffffffffffffffffffffffffff166323b872dd3330846040518463ffffffff1660e01b8152600401808473ffffffffffffffffffffffffffffffffffffffff1681526020018373ffffffffffffffffffffffffffffffffffffffff1681526020018281526020019350505050602060405180830381600087803b158015610ff357600080fd5b505af1158015611007573d6000803e3d6000fd5b505050506040513d602081101561101d57600080fd5b81019080805190602001909291905050506110a0576040517f08c379a00000000000000000000000000000000000000000000000000000000081526004018080602001828103825260128152602001807f496e73756666696369656e742066756e6473000000000000000000000000000081525060200191505060405180910390fd5b6110b58160035461259390919063ffffffff16565b6003819055506000600160009054906101000a900473ffffffffffffffffffffffffffffffffffffffff1673ffffffffffffffffffffffffffffffffffffffff166318160ddd6040518163ffffffff1660e01b815260040160206040518083038186803b15801561112557600080fd5b505afa158015611139573d6000803e3d6000fd5b505050506040513d602081101561114f57600080fd5b81019080805190602001909291905050509050600080821415611174578290506111a3565b6111a061117f61234d565b611192848661261b90919063ffffffff16565b6126a190919063ffffffff16565b90505b6111b88360055461259390919063ffffffff16565b600581905550600160009054906101000a900473ffffffffffffffffffffffffffffffffffffffff1673ffffffffffffffffffffffffffffffffffffffff166340c10f1933836040518363ffffffff1660e01b8152600401808373ffffffffffffffffffffffffffffffffffffffff16815260200182815260200192505050600060405180830381600087803b15801561125157600080fd5b505af1158015611265573d6000803e3d6000fd5b50505050505050565b6000600a6000838152602001908152602001600020549050919050565b60086020528060005260406000206000915090508060000154908060010154905082565b600160009054906101000a900473ffffffffffffffffffffffffffffffffffffffff1681565b6112dd61272a565b600c60008373ffffffffffffffffffffffffffffffffffffffff1673ffffffffffffffffffffffffffffffffffffffff1681526020019081526020016000206040518060400160405290816000820154815260200160018201548152505090506000816000015114156113b8576040517f08c379a00000000000000000000000000000000000000000000000000000000081526004018080602001828103825260118152602001807f576974686472617720696e61637469766500000000000000000000000000000081525060200191505060405180910390fd5b436113d2600654836000015161259390919063ffffffff16565b1115611446576040517f08c379a000000000000000000000000000000000000000000000000000000000815260040180806020018281038252600f8152602001807f74696d656c6f636b20616374697665000000000000000000000000000000000081525060200191505060405180910390fd5b600061151a600160009054906101000a900473ffffffffffffffffffffffffffffffffffffffff1673ffffffffffffffffffffffffffffffffffffffff166318160ddd6040518163ffffffff1660e01b815260040160206040518083038186803b1580156114b357600080fd5b505afa1580156114c7573d6000803e3d6000fd5b505050506040513d60208110156114dd57600080fd5b810190808051906020019092919050505061150c6114f961234d565b856020015161261b90919063ffffffff16565b6126a190919063ffffffff16565b9050600260009054906101000a900473ffffffffffffffffffffffffffffffffffffffff1673ffffffffffffffffffffffffffffffffffffffff1663a9059cbb84836040518363ffffffff1660e01b8152600401808373ffffffffffffffffffffffffffffffffffffffff16815260200182815260200192505050602060405180830381600087803b1580156115af57600080fd5b505af11580156115c3573d6000803e3d6000fd5b505050506040513d60208110156115d957600080fd5b810190808051906020019092919050505050600160009054906101000a900473ffffffffffffffffffffffffffffffffffffffff1673ffffffffffffffffffffffffffffffffffffffff16639dc29fac3084602001516040518363ffffffff1660e01b8152600401808373ffffffffffffffffffffffffffffffffffffffff16815260200182815260200192505050600060405180830381600087803b15801561168257600080fd5b505af1158015611696573d6000803e3d6000fd5b50505050505050565b6116a761258b565b73ffffffffffffffffffffffffffffffffffffffff166116c5611b23565b73ffffffffffffffffffffffffffffffffffffffff161461174e576040517f08c379a00000000000000000000000000000000000000000000000000000000081526004018080602001828103825260208152602001807f4f776e61626c653a2063616c6c6572206973206e6f7420746865206f776e657281525060200191505060405180910390fd5b600073ffffffffffffffffffffffffffffffffffffffff1660008054906101000a900473ffffffffffffffffffffffffffffffffffffffff1673ffffffffffffffffffffffffffffffffffffffff167f8be0079c531659141344cd1fd0a4f28419497f9722a3daafe3b4186f6b6457e060405160405180910390a360008060006101000a81548173ffffffffffffffffffffffffffffffffffffffff021916908373ffffffffffffffffffffffffffffffffffffffff160217905550565b600260009054906101000a900473ffffffffffffffffffffffffffffffffffffffff1681565b60035481565b61184061272a565b600c60003373ffffffffffffffffffffffffffffffffffffffff1673ffffffffffffffffffffffffffffffffffffffff16815260200190815260200160002060405180604001604052908160008201548152602001600182015481525050905060008160000151141561191b576040517f08c379a00000000000000000000000000000000000000000000000000000000081526004018080602001828103825260118152602001807f576974686472617720696e61637469766500000000000000000000000000000081525060200191505060405180910390fd5b43611935600654836000015161259390919063ffffffff16565b116119a8576040517f08c379a00000000000000000000000000000000000000000000000000000000081526004018080602001828103825260108152602001807f54696d656c6f636b20457870697265640000000000000000000000000000000081525060200191505060405180910390fd5b600160009054906101000a900473ffffffffffffffffffffffffffffffffffffffff1673ffffffffffffffffffffffffffffffffffffffff1663a9059cbb3383602001516040518363ffffffff1660e01b8152600401808373ffffffffffffffffffffffffffffffffffffffff16815260200182815260200192505050602060405180830381600087803b158015611a3f57600080fd5b505af1158015611a53573d6000803e3d6000fd5b505050506040513d6020811015611a6957600080fd5b8101908080519060200190929190505050611a8357600080fd5b600c60003373ffffffffffffffffffffffffffffffffffffffff1673ffffffffffffffffffffffffffffffffffffffff1681526020019081526020016000206000808201600090556001820160009055505050565b60006009600083815260200190815260200160002060009054906101000a900460ff169050919050565b60078181548110611b0f57fe5b906000526020600020016000915090505481565b60008060009054906101000a900473ffffffffffffffffffffffffffffffffffffffff16905090565b6000611b56611b23565b905090565b611b6361258b565b73ffffffffffffffffffffffffffffffffffffffff16611b81611b23565b73ffffffffffffffffffffffffffffffffffffffff1614611c0a576040517f08c379a00000000000000000000000000000000000000000000000000000000081526004018080602001828103825260208152602001807f4f776e61626c653a2063616c6c6572206973206e6f7420746865206f776e657281525060200191505060405180910390fd5b8260078381548110611c1857fe5b906000526020600020015414611c96576040517f08c379a000000000000000000000000000000000000000000000000000000000815260040180806020018281038252600d8152602001807f496e76616c696420696e6465780000000000000000000000000000000000000081525060200191505060405180910390fd5b600260009054906101000a900473ffffffffffffffffffffffffffffffffffffffff1673ffffffffffffffffffffffffffffffffffffffff166323b872dd3083600b6000888152602001908152602001600020546040518463ffffffff1660e01b8152600401808473ffffffffffffffffffffffffffffffffffffffff1681526020018373ffffffffffffffffffffffffffffffffffffffff1681526020018281526020019350505050602060405180830381600087803b158015611d5a57600080fd5b505af1158015611d6e573d6000803e3d6000fd5b505050506040513d6020811015611d8457600080fd5b8101908080519060200190929190505050611e07576040517f08c379a00000000000000000000000000000000000000000000000000000000081526004018080602001828103825260128152602001807f496e73756666696369656e742046756e6473000000000000000000000000000081525060200191505060405180910390fd5b6008600084815260200190815260200160002060008082016000905560018201600090555050600b600084815260200190815260200160002060009055600a60008481526020019081526020016000206000905560006009600085815260200190815260200160002060006101000a81548160ff021916908315150217905550600760016007805490500381548110611e9c57fe5b906000526020600020015460078381548110611eb457fe5b9060005260206000200181905550600760016007805490500381548110611ed757fe5b90600052602060002001600090556007805480611ef057fe5b60019003818190600052602060002001600090559055505050565b600260009054906101000a900473ffffffffffffffffffffffffffffffffffffffff1673ffffffffffffffffffffffffffffffffffffffff166323b872dd3330846040518463ffffffff1660e01b8152600401808473ffffffffffffffffffffffffffffffffffffffff1681526020018373ffffffffffffffffffffffffffffffffffffffff1681526020018281526020019350505050602060405180830381600087803b158015611fbc57600080fd5b505af1158015611fd0573d6000803e3d6000fd5b505050506040513d6020811015611fe657600080fd5b8101908080519060200190929190505050612069576040517f08c379a00000000000000000000000000000000000000000000000000000000081526004018080602001828103825260128152602001807f496e73756666696369656e742066756e6473000000000000000000000000000081525060200191505060405180910390fd5b61208f81600b60008581526020019081526020016000205461259390919063ffffffff16565b600b6000848152602001908152602001600020819055505050565b60096020528060005260406000206000915054906101000a900460ff1681565b60006120d4612744565b600860008481526020019081526020016000206040518060400160405290816000820154815260200160018201548152505090506000816000015111612182576040517f08c379a00000000000000000000000000000000000000000000000000000000081526004018080602001828103825260118152602001807f50726f66696c65206e6f7420666f756e6400000000000000000000000000000081525060200191505060405180910390fd5b806000015161218f61234d565b11156121a25780600001519150506121ae565b6121aa61234d565b9150505b919050565b6000612346600160009054906101000a900473ffffffffffffffffffffffffffffffffffffffff1673ffffffffffffffffffffffffffffffffffffffff166318160ddd6040518163ffffffff1660e01b815260040160206040518083038186803b15801561222057600080fd5b505afa158015612234573d6000803e3d6000fd5b505050506040513d602081101561224a57600080fd5b810190808051906020019092919050505061233861226661234d565b600160009054906101000a900473ffffffffffffffffffffffffffffffffffffffff1673ffffffffffffffffffffffffffffffffffffffff166370a08231876040518263ffffffff1660e01b8152600401808273ffffffffffffffffffffffffffffffffffffffff16815260200191505060206040518083038186803b1580156122ef57600080fd5b505afa158015612303573d6000803e3d6000fd5b505050506040513d602081101561231957600080fd5b810190808051906020019092919050505061261b90919063ffffffff16565b6126a190919063ffffffff16565b9050919050565b6000600554905090565b600b6020528060005260406000206000915090505481565b60045481565b61237d61258b565b73ffffffffffffffffffffffffffffffffffffffff1661239b611b23565b73ffffffffffffffffffffffffffffffffffffffff1614612424576040517f08c379a00000000000000000000000000000000000000000000000000000000081526004018080602001828103825260208152602001807f4f776e61626c653a2063616c6c6572206973206e6f7420746865206f776e657281525060200191505060405180910390fd5b600073ffffffffffffffffffffffffffffffffffffffff168173ffffffffffffffffffffffffffffffffffffffff1614156124aa576040517f08c379a000000000000000000000000000000000000000000000000000000000815260040180806020018281038252602681526020018061275f6026913960400191505060405180910390fd5b8073ffffffffffffffffffffffffffffffffffffffff1660008054906101000a900473ffffffffffffffffffffffffffffffffffffffff1673ffffffffffffffffffffffffffffffffffffffff167f8be0079c531659141344cd1fd0a4f28419497f9722a3daafe3b4186f6b6457e060405160405180910390a3806000806101000a81548173ffffffffffffffffffffffffffffffffffffffff021916908373ffffffffffffffffffffffffffffffffffffffff16021790555050565b600c6020528060005260406000206000915090508060000154908060010154905082565b600033905090565b600080828401905083811015612611576040517f08c379a000000000000000000000000000000000000000000000000000000000815260040180806020018281038252601b8152602001807f536166654d6174683a206164646974696f6e206f766572666c6f77000000000081525060200191505060405180910390fd5b8091505092915050565b60008083141561262e576000905061269b565b600082840290508284828161263f57fe5b0414612696576040517f08c379a00000000000000000000000000000000000000000000000000000000081526004018080602001828103825260218152602001806127856021913960400191505060405180910390fd5b809150505b92915050565b6000808211612718576040517f08c379a000000000000000000000000000000000000000000000000000000000815260040180806020018281038252601a8152602001807f536166654d6174683a206469766973696f6e206279207a65726f00000000000081525060200191505060405180910390fd5b81838161272157fe5b04905092915050565b604051806040016040528060008152602001600081525090565b60405180604001604052806000815260200160008152509056fe4f776e61626c653a206e6577206f776e657220697320746865207a65726f2061646472657373536166654d6174683a206d756c7469706c69636174696f6e206f766572666c6f77a2646970667358221220f23679f9408c287bee0943dc8d1b98e3888b0ef774f3f17deee52bcf650c3eb364736f6c63430007030033",
  "linkReferences": {},
  "deployedLinkReferences": {}
}