{
  "_format": "hh-sol-artifact-1",
  "contractName": "PFLBloc",
  "sourceName": "src/backend/contracts/PFLBloc.sol",
  "abi": [
    {
      "inputs": [
        {
          "internalType": "contract ILPToken",
          "name": "_lpToken",
          "type": "address"
        },
        {
          "internalType": "contract IToken",
          "name": "_PFLToken",
          "type": "address"
        }
      ],
      "stateMutability": "nonpayable",
      "type": "constructor"
    },
    {
      "anonymous": false,
      "inputs": [
        {
          "indexed": true,
          "internalType": "address",
          "name": "previousOwner",
          "type": "address"
        },
        {
          "indexed": true,
          "internalType": "address",
          "name": "newOwner",
          "type": "address"
        }
      ],
      "name": "OwnershipTransferred",
      "type": "event"
    },
    {
      "inputs": [],
      "name": "ERC20Token",
      "outputs": [
        {
          "internalType": "contract IToken",
          "name": "",
          "type": "address"
        }
      ],
      "stateMutability": "view",
      "type": "function"
    },
    {
      "inputs": [
        {
          "internalType": "bytes32",
          "name": "_protocol",
          "type": "bytes32"
        },
        {
          "internalType": "uint256",
          "name": "_amount",
          "type": "uint256"
        }
      ],
      "name": "addProfileBalance",
      "outputs": [],
      "stateMutability": "nonpayable",
      "type": "function"
    },
    {
      "inputs": [],
      "name": "cancelWithdraw",
      "outputs": [],
      "stateMutability": "nonpayable",
      "type": "function"
    },
    {
      "inputs": [
        {
          "internalType": "address",
          "name": "_staker",
          "type": "address"
        }
      ],
      "name": "claimFunds",
      "outputs": [],
      "stateMutability": "nonpayable",
      "type": "function"
    },
    {
      "inputs": [
        {
          "internalType": "bytes32",
          "name": "_protocol",
          "type": "bytes32"
        }
      ],
      "name": "coveredFunds",
      "outputs": [
        {
          "internalType": "uint256",
          "name": "",
          "type": "uint256"
        }
      ],
      "stateMutability": "view",
      "type": "function"
    },
    {
      "inputs": [
        {
          "internalType": "address",
          "name": "_staker",
          "type": "address"
        }
      ],
      "name": "getFunds",
      "outputs": [
        {
          "internalType": "uint256",
          "name": "",
          "type": "uint256"
        }
      ],
      "stateMutability": "view",
      "type": "function"
    },
    {
      "inputs": [],
      "name": "getTotalStakedFunds",
      "outputs": [
        {
          "internalType": "uint256",
          "name": "",
          "type": "uint256"
        }
      ],
      "stateMutability": "view",
      "type": "function"
    },
    {
      "inputs": [],
      "name": "isOwner",
      "outputs": [
        {
          "internalType": "address",
          "name": "",
          "type": "address"
        }
      ],
      "stateMutability": "view",
      "type": "function"
    },
    {
      "inputs": [],
      "name": "lpToken",
      "outputs": [
        {
          "internalType": "contract ILPToken",
          "name": "",
          "type": "address"
        }
      ],
      "stateMutability": "view",
      "type": "function"
    },
    {
      "inputs": [],
      "name": "owner",
      "outputs": [
        {
          "internalType": "address",
          "name": "",
          "type": "address"
        }
      ],
      "stateMutability": "view",
      "type": "function"
    },
    {
      "inputs": [
        {
          "internalType": "bytes32",
          "name": "_protocol",
          "type": "bytes32"
        }
      ],
      "name": "premiumLastPaid",
      "outputs": [
        {
          "internalType": "uint256",
          "name": "",
          "type": "uint256"
        }
      ],
      "stateMutability": "view",
      "type": "function"
    },
    {
      "inputs": [
        {
          "internalType": "bytes32",
          "name": "",
          "type": "bytes32"
        }
      ],
      "name": "profileBalances",
      "outputs": [
        {
          "internalType": "uint256",
          "name": "",
          "type": "uint256"
        }
      ],
      "stateMutability": "view",
      "type": "function"
    },
    {
      "inputs": [
        {
          "internalType": "bytes32",
          "name": "",
          "type": "bytes32"
        }
      ],
      "name": "profilePremiumLastPaid",
      "outputs": [
        {
          "internalType": "uint256",
          "name": "",
          "type": "uint256"
        }
      ],
      "stateMutability": "view",
      "type": "function"
    },
    {
      "inputs": [
        {
          "internalType": "bytes32",
          "name": "",
          "type": "bytes32"
        }
      ],
      "name": "profiles",
      "outputs": [
        {
          "internalType": "uint256",
          "name": "maxFundsCovered",
          "type": "uint256"
        },
        {
          "internalType": "uint256",
          "name": "premiumPerBlock",
          "type": "uint256"
        }
      ],
      "stateMutability": "view",
      "type": "function"
    },
    {
      "inputs": [
        {
          "internalType": "bytes32",
          "name": "_protocol",
          "type": "bytes32"
        }
      ],
      "name": "protocolCovered",
      "outputs": [
        {
          "internalType": "bool",
          "name": "",
          "type": "bool"
        }
      ],
      "stateMutability": "view",
      "type": "function"
    },
    {
      "inputs": [
        {
          "internalType": "uint256",
          "name": "",
          "type": "uint256"
        }
      ],
      "name": "protocols",
      "outputs": [
        {
          "internalType": "bytes32",
          "name": "",
          "type": "bytes32"
        }
      ],
      "stateMutability": "view",
      "type": "function"
    },
    {
      "inputs": [
        {
          "internalType": "bytes32",
          "name": "",
          "type": "bytes32"
        }
      ],
      "name": "protocolsCovered",
      "outputs": [
        {
          "internalType": "bool",
          "name": "",
          "type": "bool"
        }
      ],
      "stateMutability": "view",
      "type": "function"
    },
    {
      "inputs": [],
      "name": "renounceOwnership",
      "outputs": [],
      "stateMutability": "nonpayable",
      "type": "function"
    },
    {
      "inputs": [
        {
          "internalType": "uint256",
          "name": "_timelock",
          "type": "uint256"
        }
      ],
      "name": "setTimelock",
      "outputs": [],
      "stateMutability": "nonpayable",
      "type": "function"
    },
    {
      "inputs": [
        {
          "internalType": "uint256",
          "name": "_amount",
          "type": "uint256"
        }
      ],
      "name": "stakeFunds",
      "outputs": [],
      "stateMutability": "nonpayable",
      "type": "function"
    },
    {
      "inputs": [
        {
          "internalType": "address",
          "name": "",
          "type": "address"
        }
      ],
      "name": "stakesWithdraw",
      "outputs": [
        {
          "internalType": "uint256",
          "name": "blockInitiated",
          "type": "uint256"
        },
        {
          "internalType": "uint256",
          "name": "stake",
          "type": "uint256"
        }
      ],
      "stateMutability": "view",
      "type": "function"
    },
    {
      "inputs": [],
      "name": "totalLPTokens",
      "outputs": [
        {
          "internalType": "uint256",
          "name": "",
          "type": "uint256"
        }
      ],
      "stateMutability": "view",
      "type": "function"
    },
    {
      "inputs": [],
      "name": "totalStaked",
      "outputs": [
        {
          "internalType": "uint256",
          "name": "",
          "type": "uint256"
        }
      ],
      "stateMutability": "view",
      "type": "function"
    },
    {
      "inputs": [
        {
          "internalType": "address",
          "name": "newOwner",
          "type": "address"
        }
      ],
      "name": "transferOwnership",
      "outputs": [],
      "stateMutability": "nonpayable",
      "type": "function"
    },
    {
      "inputs": [
        {
          "internalType": "bytes32",
          "name": "_protocol",
          "type": "bytes32"
        },
        {
          "internalType": "uint256",
          "name": "_maxFundsCovered",
          "type": "uint256"
        },
        {
          "internalType": "uint256",
          "name": "_percentagePremiumPerBlock",
          "type": "uint256"
        },
        {
          "internalType": "uint256",
          "name": "_premiumLastPaid",
          "type": "uint256"
        }
      ],
      "name": "updateProfiles",
      "outputs": [],
      "stateMutability": "nonpayable",
      "type": "function"
    },
    {
      "inputs": [
        {
          "internalType": "uint256",
          "name": "_amount",
          "type": "uint256"
        }
      ],
      "name": "withdrawStake",
      "outputs": [],
      "stateMutability": "nonpayable",
      "type": "function"
    }
  ],
  "bytecode": "0x608060405234801561001057600080fd5b506040516125543803806125548339818101604052604081101561003357600080fd5b810190808051906020019092919080519060200190929190505050600061005e61018560201b60201c565b9050806000806101000a81548173ffffffffffffffffffffffffffffffffffffffff021916908373ffffffffffffffffffffffffffffffffffffffff1602179055508073ffffffffffffffffffffffffffffffffffffffff16600073ffffffffffffffffffffffffffffffffffffffff167f8be0079c531659141344cd1fd0a4f28419497f9722a3daafe3b4186f6b6457e060405160405180910390a35081600160006101000a81548173ffffffffffffffffffffffffffffffffffffffff021916908373ffffffffffffffffffffffffffffffffffffffff16021790555080600260006101000a81548173ffffffffffffffffffffffffffffffffffffffff021916908373ffffffffffffffffffffffffffffffffffffffff160217905550505061018d565b600033905090565b6123b88061019c6000396000f3fe608060405234801561001057600080fd5b506004361061018e5760003560e01c806389995f42116100de578063d7ef5e0f11610097578063e6501b4611610071578063e6501b4614610636578063ef6283d914610678578063f2fde38b14610696578063f6e6d788146106da5761018e565b8063d7ef5e0f1461057e578063decebbce146105c0578063e2abad47146106185761018e565b806389995f42146104145780638c396220146104585780638da5cb5b1461049a5780638f32d59b146104ce578063a378d23b14610502578063bc0e8aac1461053a5761018e565b806352f336821161014b578063715018a611610125578063715018a6146103ae5780637a80760e146103b8578063817b1cd2146103ec57806384b768241461040a5761018e565b806352f33682146102ed5780635fcbd28514610336578063693d0df21461036a5761018e565b806305334471146101935780631e891c0a146101df57806325d5971f1461020d5780632a132b0b1461023b57806336e58dab1461027d57806348a1b3be146102ab575b600080fd5b6101dd600480360360808110156101a957600080fd5b8101908080359060200190929190803590602001909291908035906020019092919080359060200190929190505050610739565b005b61020b600480360360208110156101f557600080fd5b8101908080359060200190929190505050610b7a565b005b6102396004803603602081101561022357600080fd5b8101908080359060200190929190505050610c33565b005b6102676004803603602081101561025157600080fd5b8101908080359060200190929190505050610eb7565b6040518082815260200191505060405180910390f35b6102a96004803603602081101561029357600080fd5b8101908080359060200190929190505050610ecf565b005b6102d7600480360360208110156102c157600080fd5b81019080803590602001909291905050506111fb565b6040518082815260200191505060405180910390f35b6103196004803603602081101561030357600080fd5b8101908080359060200190929190505050611218565b604051808381526020018281526020019250505060405180910390f35b61033e61123c565b604051808273ffffffffffffffffffffffffffffffffffffffff16815260200191505060405180910390f35b6103ac6004803603602081101561038057600080fd5b81019080803573ffffffffffffffffffffffffffffffffffffffff169060200190929190505050611262565b005b6103b661162c565b005b6103c0611799565b604051808273ffffffffffffffffffffffffffffffffffffffff16815260200191505060405180910390f35b6103f46117bf565b6040518082815260200191505060405180910390f35b6104126117c5565b005b6104406004803603602081101561042a57600080fd5b8101908080359060200190929190505050611a65565b60405180821515815260200191505060405180910390f35b6104846004803603602081101561046e57600080fd5b8101908080359060200190929190505050611a8f565b6040518082815260200191505060405180910390f35b6104a2611ab0565b604051808273ffffffffffffffffffffffffffffffffffffffff16815260200191505060405180910390f35b6104d6611ad9565b604051808273ffffffffffffffffffffffffffffffffffffffff16815260200191505060405180910390f35b6105386004803603604081101561051857600080fd5b810190808035906020019092919080359060200190929190505050611ae8565b005b6105666004803603602081101561055057600080fd5b8101908080359060200190929190505050611c87565b60405180821515815260200191505060405180910390f35b6105aa6004803603602081101561059457600080fd5b8101908080359060200190929190505050611ca7565b6040518082815260200191505060405180910390f35b610602600480360360208110156105d657600080fd5b81019080803573ffffffffffffffffffffffffffffffffffffffff169060200190929190505050611d90565b6040518082815260200191505060405180910390f35b610620611f2a565b6040518082815260200191505060405180910390f35b6106626004803603602081101561064c57600080fd5b8101908080359060200190929190505050611f34565b6040518082815260200191505060405180910390f35b610680611f4c565b6040518082815260200191505060405180910390f35b6106d8600480360360208110156106ac57600080fd5b81019080803573ffffffffffffffffffffffffffffffffffffffff169060200190929190505050611f52565b005b61071c600480360360208110156106f057600080fd5b81019080803573ffffffffffffffffffffffffffffffffffffffff169060200190929190505050612144565b604051808381526020018281526020019250505060405180910390f35b610741612168565b73ffffffffffffffffffffffffffffffffffffffff1661075f611ab0565b73ffffffffffffffffffffffffffffffffffffffff16146107e8576040517f08c379a00000000000000000000000000000000000000000000000000000000081526004018080602001828103825260208152602001807f4f776e61626c653a2063616c6c6572206973206e6f7420746865206f776e657281525060200191505060405180910390fd5b6000801b841415610861576040517f08c379a00000000000000000000000000000000000000000000000000000000081526004018080602001828103825260108152602001807f496e76616c69642050726f746f636f6c0000000000000000000000000000000081525060200191505060405180910390fd5b60008314156108d8576040517f08c379a000000000000000000000000000000000000000000000000000000000815260040180806020018281038252600d8152602001807f496e76616c69642046756e64730000000000000000000000000000000000000081525060200191505060405180910390fd5b600082141561094f576040517f08c379a000000000000000000000000000000000000000000000000000000000815260040180806020018281038252600c8152602001807f496e76616c6964205269736b000000000000000000000000000000000000000081525060200191505060405180910390fd5b6040518060400160405280848152602001838152506008600086815260200190815260200160002060008201518160000155602082015181600101559050506009600085815260200190815260200160002060009054906101000a900460ff16610a095760016009600086815260200190815260200160002060006101000a81548160ff02191690831515021790555060078490806001815401808255809150506001900390600052602060002001600090919091909150555b6000811415610aa0576000600a60008681526020019081526020016000205411610a9b576040517f08c379a00000000000000000000000000000000000000000000000000000000081526004018080602001828103825260118152602001807f496e76616c6964206c617374207061696400000000000000000000000000000081525060200191505060405180910390fd5b610b74565b7fffffffffffffffffffffffffffffffffffffffffffffffffffffffffffffffff811415610ae55743600a600086815260200190815260200160002081905550610b73565b438110610b5a576040517f08c379a00000000000000000000000000000000000000000000000000000000081526004018080602001828103825260088152602001807f546f6f206869676800000000000000000000000000000000000000000000000081525060200191505060405180910390fd5b80600a6000868152602001908152602001600020819055505b5b50505050565b610b82612168565b73ffffffffffffffffffffffffffffffffffffffff16610ba0611ab0565b73ffffffffffffffffffffffffffffffffffffffff1614610c29576040517f08c379a00000000000000000000000000000000000000000000000000000000081526004018080602001828103825260208152602001807f4f776e61626c653a2063616c6c6572206973206e6f7420746865206f776e657281525060200191505060405180910390fd5b8060068190555050565b6000600c60003373ffffffffffffffffffffffffffffffffffffffff1673ffffffffffffffffffffffffffffffffffffffff1681526020019081526020016000206000015414610ceb576040517f08c379a000000000000000000000000000000000000000000000000000000000815260040180806020018281038252600f8152602001807f576974686472617720616374697665000000000000000000000000000000000081525060200191505060405180910390fd5b600160009054906101000a900473ffffffffffffffffffffffffffffffffffffffff1673ffffffffffffffffffffffffffffffffffffffff166323b872dd3330846040518463ffffffff1660e01b8152600401808473ffffffffffffffffffffffffffffffffffffffff1681526020018373ffffffffffffffffffffffffffffffffffffffff1681526020018281526020019350505050602060405180830381600087803b158015610d9c57600080fd5b505af1158015610db0573d6000803e3d6000fd5b505050506040513d6020811015610dc657600080fd5b8101908080519060200190929190505050610e49576040517f08c379a000000000000000000000000000000000000000000000000000000000815260040180806020018281038252600f8152602001807f5472616e73666572206661696c6564000000000000000000000000000000000081525060200191505060405180910390fd5b604051806040016040528043815260200182815250600c60003373ffffffffffffffffffffffffffffffffffffffff1673ffffffffffffffffffffffffffffffffffffffff168152602001908152602001600020600082015181600001556020820151816001015590505050565b600a6020528060005260406000206000915090505481565b600260009054906101000a900473ffffffffffffffffffffffffffffffffffffffff1673ffffffffffffffffffffffffffffffffffffffff166323b872dd3330846040518463ffffffff1660e01b8152600401808473ffffffffffffffffffffffffffffffffffffffff1681526020018373ffffffffffffffffffffffffffffffffffffffff1681526020018281526020019350505050602060405180830381600087803b158015610f8057600080fd5b505af1158015610f94573d6000803e3d6000fd5b505050506040513d6020811015610faa57600080fd5b810190808051906020019092919050505061102d576040517f08c379a00000000000000000000000000000000000000000000000000000000081526004018080602001828103825260128152602001807f496e73756666696369656e742066756e6473000000000000000000000000000081525060200191505060405180910390fd5b6110428160035461217090919063ffffffff16565b6003819055506000600160009054906101000a900473ffffffffffffffffffffffffffffffffffffffff1673ffffffffffffffffffffffffffffffffffffffff166318160ddd6040518163ffffffff1660e01b815260040160206040518083038186803b1580156110b257600080fd5b505afa1580156110c6573d6000803e3d6000fd5b505050506040513d60208110156110dc57600080fd5b8101908080519060200190929190505050905060008082141561110157829050611130565b61112d61110c611f2a565b61111f84866121f890919063ffffffff16565b61227e90919063ffffffff16565b90505b6111458360055461217090919063ffffffff16565b600581905550600160009054906101000a900473ffffffffffffffffffffffffffffffffffffffff1673ffffffffffffffffffffffffffffffffffffffff166340c10f1933836040518363ffffffff1660e01b8152600401808373ffffffffffffffffffffffffffffffffffffffff16815260200182815260200192505050600060405180830381600087803b1580156111de57600080fd5b505af11580156111f2573d6000803e3d6000fd5b50505050505050565b6000600a6000838152602001908152602001600020549050919050565b60086020528060005260406000206000915090508060000154908060010154905082565b600160009054906101000a900473ffffffffffffffffffffffffffffffffffffffff1681565b61126a612307565b600c60008373ffffffffffffffffffffffffffffffffffffffff1673ffffffffffffffffffffffffffffffffffffffff168152602001908152602001600020604051806040016040529081600082015481526020016001820154815250509050600081600001511415611345576040517f08c379a00000000000000000000000000000000000000000000000000000000081526004018080602001828103825260118152602001807f576974686472617720696e61637469766500000000000000000000000000000081525060200191505060405180910390fd5b4361135f600654836000015161217090919063ffffffff16565b11156113d3576040517f08c379a000000000000000000000000000000000000000000000000000000000815260040180806020018281038252600f8152602001807f74696d656c6f636b20616374697665000000000000000000000000000000000081525060200191505060405180910390fd5b60006114a7600160009054906101000a900473ffffffffffffffffffffffffffffffffffffffff1673ffffffffffffffffffffffffffffffffffffffff166318160ddd6040518163ffffffff1660e01b815260040160206040518083038186803b15801561144057600080fd5b505afa158015611454573d6000803e3d6000fd5b505050506040513d602081101561146a57600080fd5b8101908080519060200190929190505050611499611486611f2a565b85602001516121f890919063ffffffff16565b61227e90919063ffffffff16565b9050600260009054906101000a900473ffffffffffffffffffffffffffffffffffffffff1673ffffffffffffffffffffffffffffffffffffffff1663a9059cbb84836040518363ffffffff1660e01b8152600401808373ffffffffffffffffffffffffffffffffffffffff16815260200182815260200192505050602060405180830381600087803b15801561153c57600080fd5b505af1158015611550573d6000803e3d6000fd5b505050506040513d602081101561156657600080fd5b810190808051906020019092919050505050600160009054906101000a900473ffffffffffffffffffffffffffffffffffffffff1673ffffffffffffffffffffffffffffffffffffffff16639dc29fac3084602001516040518363ffffffff1660e01b8152600401808373ffffffffffffffffffffffffffffffffffffffff16815260200182815260200192505050600060405180830381600087803b15801561160f57600080fd5b505af1158015611623573d6000803e3d6000fd5b50505050505050565b611634612168565b73ffffffffffffffffffffffffffffffffffffffff16611652611ab0565b73ffffffffffffffffffffffffffffffffffffffff16146116db576040517f08c379a00000000000000000000000000000000000000000000000000000000081526004018080602001828103825260208152602001807f4f776e61626c653a2063616c6c6572206973206e6f7420746865206f776e657281525060200191505060405180910390fd5b600073ffffffffffffffffffffffffffffffffffffffff1660008054906101000a900473ffffffffffffffffffffffffffffffffffffffff1673ffffffffffffffffffffffffffffffffffffffff167f8be0079c531659141344cd1fd0a4f28419497f9722a3daafe3b4186f6b6457e060405160405180910390a360008060006101000a81548173ffffffffffffffffffffffffffffffffffffffff021916908373ffffffffffffffffffffffffffffffffffffffff160217905550565b600260009054906101000a900473ffffffffffffffffffffffffffffffffffffffff1681565b60035481565b6117cd612307565b600c60003373ffffffffffffffffffffffffffffffffffffffff1673ffffffffffffffffffffffffffffffffffffffff1681526020019081526020016000206040518060400160405290816000820154815260200160018201548152505090506000816000015114156118a8576040517f08c379a00000000000000000000000000000000000000000000000000000000081526004018080602001828103825260118152602001807f576974686472617720696e61637469766500000000000000000000000000000081525060200191505060405180910390fd5b436118c2600654836000015161217090919063ffffffff16565b11611935576040517f08c379a00000000000000000000000000000000000000000000000000000000081526004018080602001828103825260108152602001807f54696d656c6f636b20457870697265640000000000000000000000000000000081525060200191505060405180910390fd5b600160009054906101000a900473ffffffffffffffffffffffffffffffffffffffff1673ffffffffffffffffffffffffffffffffffffffff1663a9059cbb3383602001516040518363ffffffff1660e01b8152600401808373ffffffffffffffffffffffffffffffffffffffff16815260200182815260200192505050602060405180830381600087803b1580156119cc57600080fd5b505af11580156119e0573d6000803e3d6000fd5b505050506040513d60208110156119f657600080fd5b8101908080519060200190929190505050611a1057600080fd5b600c60003373ffffffffffffffffffffffffffffffffffffffff1673ffffffffffffffffffffffffffffffffffffffff1681526020019081526020016000206000808201600090556001820160009055505050565b60006009600083815260200190815260200160002060009054906101000a900460ff169050919050565b60078181548110611a9c57fe5b906000526020600020016000915090505481565b60008060009054906101000a900473ffffffffffffffffffffffffffffffffffffffff16905090565b6000611ae3611ab0565b905090565b600260009054906101000a900473ffffffffffffffffffffffffffffffffffffffff1673ffffffffffffffffffffffffffffffffffffffff166323b872dd3330846040518463ffffffff1660e01b8152600401808473ffffffffffffffffffffffffffffffffffffffff1681526020018373ffffffffffffffffffffffffffffffffffffffff1681526020018281526020019350505050602060405180830381600087803b158015611b9957600080fd5b505af1158015611bad573d6000803e3d6000fd5b505050506040513d6020811015611bc357600080fd5b8101908080519060200190929190505050611c46576040517f08c379a00000000000000000000000000000000000000000000000000000000081526004018080602001828103825260128152602001807f496e73756666696369656e742066756e6473000000000000000000000000000081525060200191505060405180910390fd5b611c6c81600b60008581526020019081526020016000205461217090919063ffffffff16565b600b6000848152602001908152602001600020819055505050565b60096020528060005260406000206000915054906101000a900460ff1681565b6000611cb1612321565b600860008481526020019081526020016000206040518060400160405290816000820154815260200160018201548152505090506000816000015111611d5f576040517f08c379a00000000000000000000000000000000000000000000000000000000081526004018080602001828103825260118152602001807f50726f66696c65206e6f7420666f756e6400000000000000000000000000000081525060200191505060405180910390fd5b8060000151611d6c611f2a565b1115611d7f578060000151915050611d8b565b611d87611f2a565b9150505b919050565b6000611f23600160009054906101000a900473ffffffffffffffffffffffffffffffffffffffff1673ffffffffffffffffffffffffffffffffffffffff166318160ddd6040518163ffffffff1660e01b815260040160206040518083038186803b158015611dfd57600080fd5b505afa158015611e11573d6000803e3d6000fd5b505050506040513d6020811015611e2757600080fd5b8101908080519060200190929190505050611f15611e43611f2a565b600160009054906101000a900473ffffffffffffffffffffffffffffffffffffffff1673ffffffffffffffffffffffffffffffffffffffff166370a08231876040518263ffffffff1660e01b8152600401808273ffffffffffffffffffffffffffffffffffffffff16815260200191505060206040518083038186803b158015611ecc57600080fd5b505afa158015611ee0573d6000803e3d6000fd5b505050506040513d6020811015611ef657600080fd5b81019080805190602001909291905050506121f890919063ffffffff16565b61227e90919063ffffffff16565b9050919050565b6000600554905090565b600b6020528060005260406000206000915090505481565b60045481565b611f5a612168565b73ffffffffffffffffffffffffffffffffffffffff16611f78611ab0565b73ffffffffffffffffffffffffffffffffffffffff1614612001576040517f08c379a00000000000000000000000000000000000000000000000000000000081526004018080602001828103825260208152602001807f4f776e61626c653a2063616c6c6572206973206e6f7420746865206f776e657281525060200191505060405180910390fd5b600073ffffffffffffffffffffffffffffffffffffffff168173ffffffffffffffffffffffffffffffffffffffff161415612087576040517f08c379a000000000000000000000000000000000000000000000000000000000815260040180806020018281038252602681526020018061233c6026913960400191505060405180910390fd5b8073ffffffffffffffffffffffffffffffffffffffff1660008054906101000a900473ffffffffffffffffffffffffffffffffffffffff1673ffffffffffffffffffffffffffffffffffffffff167f8be0079c531659141344cd1fd0a4f28419497f9722a3daafe3b4186f6b6457e060405160405180910390a3806000806101000a81548173ffffffffffffffffffffffffffffffffffffffff021916908373ffffffffffffffffffffffffffffffffffffffff16021790555050565b600c6020528060005260406000206000915090508060000154908060010154905082565b600033905090565b6000808284019050838110156121ee576040517f08c379a000000000000000000000000000000000000000000000000000000000815260040180806020018281038252601b8152602001807f536166654d6174683a206164646974696f6e206f766572666c6f77000000000081525060200191505060405180910390fd5b8091505092915050565b60008083141561220b5760009050612278565b600082840290508284828161221c57fe5b0414612273576040517f08c379a00000000000000000000000000000000000000000000000000000000081526004018080602001828103825260218152602001806123626021913960400191505060405180910390fd5b809150505b92915050565b60008082116122f5576040517f08c379a000000000000000000000000000000000000000000000000000000000815260040180806020018281038252601a8152602001807f536166654d6174683a206469766973696f6e206279207a65726f00000000000081525060200191505060405180910390fd5b8183816122fe57fe5b04905092915050565b604051806040016040528060008152602001600081525090565b60405180604001604052806000815260200160008152509056fe4f776e61626c653a206e6577206f776e657220697320746865207a65726f2061646472657373536166654d6174683a206d756c7469706c69636174696f6e206f766572666c6f77a264697066735822122012a006036d32c9a1025ff9e2a3d1aeb88ecbc916adeb32c1c9f9ee162705331064736f6c63430007030033",
  "linkReferences": {},
  "deployedLinkReferences": {}
}