{
  "_format": "hh-sol-artifact-1",
  "contractName": "PFLBloc",
  "sourceName": "src/backend/contracts/PFLBloc.sol",
  "abi": [
    {
      "inputs": [
        {
          "internalType": "contract ILPToken",
          "name": "_lpToken",
          "type": "address"
        },
        {
          "internalType": "contract IToken",
          "name": "_PFLToken",
          "type": "address"
        }
      ],
      "stateMutability": "nonpayable",
      "type": "constructor"
    },
    {
      "anonymous": false,
      "inputs": [
        {
          "indexed": true,
          "internalType": "address",
          "name": "previousOwner",
          "type": "address"
        },
        {
          "indexed": true,
          "internalType": "address",
          "name": "newOwner",
          "type": "address"
        }
      ],
      "name": "OwnershipTransferred",
      "type": "event"
    },
    {
      "inputs": [],
      "name": "ERC20Token",
      "outputs": [
        {
          "internalType": "contract IToken",
          "name": "",
          "type": "address"
        }
      ],
      "stateMutability": "view",
      "type": "function"
    },
    {
      "inputs": [
        {
          "internalType": "bytes32",
          "name": "_protocol",
          "type": "bytes32"
        }
      ],
      "name": "accruedDebt",
      "outputs": [
        {
          "internalType": "uint256",
          "name": "",
          "type": "uint256"
        }
      ],
      "stateMutability": "view",
      "type": "function"
    },
    {
      "inputs": [
        {
          "internalType": "bytes32",
          "name": "_protocol",
          "type": "bytes32"
        },
        {
          "internalType": "uint256",
          "name": "_amount",
          "type": "uint256"
        }
      ],
      "name": "addProfileBalance",
      "outputs": [],
      "stateMutability": "nonpayable",
      "type": "function"
    },
    {
      "inputs": [],
      "name": "cancelWithdraw",
      "outputs": [],
      "stateMutability": "nonpayable",
      "type": "function"
    },
    {
      "inputs": [
        {
          "internalType": "address",
          "name": "_staker",
          "type": "address"
        }
      ],
      "name": "claimFunds",
      "outputs": [],
      "stateMutability": "nonpayable",
      "type": "function"
    },
    {
      "inputs": [
        {
          "internalType": "bytes32",
          "name": "_protocol",
          "type": "bytes32"
        }
      ],
      "name": "coveredFunds",
      "outputs": [
        {
          "internalType": "uint256",
          "name": "",
          "type": "uint256"
        }
      ],
      "stateMutability": "view",
      "type": "function"
    },
    {
      "inputs": [
        {
          "internalType": "address",
          "name": "_staker",
          "type": "address"
        }
      ],
      "name": "getFunds",
      "outputs": [
        {
          "internalType": "uint256",
          "name": "",
          "type": "uint256"
        }
      ],
      "stateMutability": "view",
      "type": "function"
    },
    {
      "inputs": [],
      "name": "getTotalStakedFunds",
      "outputs": [
        {
          "internalType": "uint256",
          "name": "",
          "type": "uint256"
        }
      ],
      "stateMutability": "view",
      "type": "function"
    },
    {
      "inputs": [],
      "name": "isOwner",
      "outputs": [
        {
          "internalType": "address",
          "name": "",
          "type": "address"
        }
      ],
      "stateMutability": "view",
      "type": "function"
    },
    {
      "inputs": [],
      "name": "lpToken",
      "outputs": [
        {
          "internalType": "contract ILPToken",
          "name": "",
          "type": "address"
        }
      ],
      "stateMutability": "view",
      "type": "function"
    },
    {
      "inputs": [],
      "name": "owner",
      "outputs": [
        {
          "internalType": "address",
          "name": "",
          "type": "address"
        }
      ],
      "stateMutability": "view",
      "type": "function"
    },
    {
      "inputs": [
        {
          "internalType": "bytes32",
          "name": "_protocol",
          "type": "bytes32"
        }
      ],
      "name": "payOffDebt",
      "outputs": [],
      "stateMutability": "nonpayable",
      "type": "function"
    },
    {
      "inputs": [
        {
          "internalType": "bytes32",
          "name": "_protocol",
          "type": "bytes32"
        }
      ],
      "name": "premiumLastPaid",
      "outputs": [
        {
          "internalType": "uint256",
          "name": "",
          "type": "uint256"
        }
      ],
      "stateMutability": "view",
      "type": "function"
    },
    {
      "inputs": [
        {
          "internalType": "bytes32",
          "name": "_protocol",
          "type": "bytes32"
        }
      ],
      "name": "premiumPerBlock",
      "outputs": [
        {
          "internalType": "uint256",
          "name": "",
          "type": "uint256"
        }
      ],
      "stateMutability": "view",
      "type": "function"
    },
    {
      "inputs": [
        {
          "internalType": "bytes32",
          "name": "_protocol",
          "type": "bytes32"
        }
      ],
      "name": "profileBalance",
      "outputs": [
        {
          "internalType": "uint256",
          "name": "",
          "type": "uint256"
        }
      ],
      "stateMutability": "view",
      "type": "function"
    },
    {
      "inputs": [
        {
          "internalType": "bytes32",
          "name": "",
          "type": "bytes32"
        }
      ],
      "name": "profileBalances",
      "outputs": [
        {
          "internalType": "uint256",
          "name": "",
          "type": "uint256"
        }
      ],
      "stateMutability": "view",
      "type": "function"
    },
    {
      "inputs": [
        {
          "internalType": "bytes32",
          "name": "",
          "type": "bytes32"
        }
      ],
      "name": "profilePremiumLastPaid",
      "outputs": [
        {
          "internalType": "uint256",
          "name": "",
          "type": "uint256"
        }
      ],
      "stateMutability": "view",
      "type": "function"
    },
    {
      "inputs": [
        {
          "internalType": "bytes32",
          "name": "",
          "type": "bytes32"
        }
      ],
      "name": "profiles",
      "outputs": [
        {
          "internalType": "uint256",
          "name": "maxFundsCovered",
          "type": "uint256"
        },
        {
          "internalType": "uint256",
          "name": "percentagePremiumPerBlock",
          "type": "uint256"
        }
      ],
      "stateMutability": "view",
      "type": "function"
    },
    {
      "inputs": [
        {
          "internalType": "bytes32",
          "name": "_protocol",
          "type": "bytes32"
        }
      ],
      "name": "protocolCovered",
      "outputs": [
        {
          "internalType": "bool",
          "name": "",
          "type": "bool"
        }
      ],
      "stateMutability": "view",
      "type": "function"
    },
    {
      "inputs": [
        {
          "internalType": "uint256",
          "name": "",
          "type": "uint256"
        }
      ],
      "name": "protocols",
      "outputs": [
        {
          "internalType": "bytes32",
          "name": "",
          "type": "bytes32"
        }
      ],
      "stateMutability": "view",
      "type": "function"
    },
    {
      "inputs": [
        {
          "internalType": "bytes32",
          "name": "",
          "type": "bytes32"
        }
      ],
      "name": "protocolsCovered",
      "outputs": [
        {
          "internalType": "bool",
          "name": "",
          "type": "bool"
        }
      ],
      "stateMutability": "view",
      "type": "function"
    },
    {
      "inputs": [
        {
          "internalType": "bytes32",
          "name": "_protocol",
          "type": "bytes32"
        },
        {
          "internalType": "uint256",
          "name": "_index",
          "type": "uint256"
        },
        {
          "internalType": "address",
          "name": "_balanceReceiver",
          "type": "address"
        }
      ],
      "name": "removeProtocol",
      "outputs": [],
      "stateMutability": "nonpayable",
      "type": "function"
    },
    {
      "inputs": [],
      "name": "renounceOwnership",
      "outputs": [],
      "stateMutability": "nonpayable",
      "type": "function"
    },
    {
      "inputs": [
        {
          "internalType": "uint256",
          "name": "_timelock",
          "type": "uint256"
        }
      ],
      "name": "setTimelock",
      "outputs": [],
      "stateMutability": "nonpayable",
      "type": "function"
    },
    {
      "inputs": [
        {
          "internalType": "uint256",
          "name": "_amount",
          "type": "uint256"
        }
      ],
      "name": "stakeFunds",
      "outputs": [],
      "stateMutability": "nonpayable",
      "type": "function"
    },
    {
      "inputs": [
        {
          "internalType": "address",
          "name": "",
          "type": "address"
        }
      ],
      "name": "stakesWithdraw",
      "outputs": [
        {
          "internalType": "uint256",
          "name": "blockInitiated",
          "type": "uint256"
        },
        {
          "internalType": "uint256",
          "name": "stake",
          "type": "uint256"
        }
      ],
      "stateMutability": "view",
      "type": "function"
    },
    {
      "inputs": [],
      "name": "totalLPTokens",
      "outputs": [
        {
          "internalType": "uint256",
          "name": "",
          "type": "uint256"
        }
      ],
      "stateMutability": "view",
      "type": "function"
    },
    {
      "inputs": [],
      "name": "totalStaked",
      "outputs": [
        {
          "internalType": "uint256",
          "name": "",
          "type": "uint256"
        }
      ],
      "stateMutability": "view",
      "type": "function"
    },
    {
      "inputs": [
        {
          "internalType": "address",
          "name": "newOwner",
          "type": "address"
        }
      ],
      "name": "transferOwnership",
      "outputs": [],
      "stateMutability": "nonpayable",
      "type": "function"
    },
    {
      "inputs": [
        {
          "internalType": "bytes32",
          "name": "_protocol",
          "type": "bytes32"
        },
        {
          "internalType": "uint256",
          "name": "_maxFundsCovered",
          "type": "uint256"
        },
        {
          "internalType": "uint256",
          "name": "_percentagePremiumPerBlock",
          "type": "uint256"
        },
        {
          "internalType": "uint256",
          "name": "_premiumLastPaid",
          "type": "uint256"
        }
      ],
      "name": "updateProfiles",
      "outputs": [],
      "stateMutability": "nonpayable",
      "type": "function"
    },
    {
      "inputs": [
        {
          "internalType": "uint256",
          "name": "_amount",
          "type": "uint256"
        }
      ],
      "name": "withdrawStake",
      "outputs": [],
      "stateMutability": "nonpayable",
      "type": "function"
    }
  ],
  "bytecode": "0x60806040523480156200001157600080fd5b5060405162002d4638038062002d46833981810160405260408110156200003757600080fd5b8101908080519060200190929190805190602001909291905050506000620000646200018c60201b60201c565b9050806000806101000a81548173ffffffffffffffffffffffffffffffffffffffff021916908373ffffffffffffffffffffffffffffffffffffffff1602179055508073ffffffffffffffffffffffffffffffffffffffff16600073ffffffffffffffffffffffffffffffffffffffff167f8be0079c531659141344cd1fd0a4f28419497f9722a3daafe3b4186f6b6457e060405160405180910390a35081600160006101000a81548173ffffffffffffffffffffffffffffffffffffffff021916908373ffffffffffffffffffffffffffffffffffffffff16021790555080600260006101000a81548173ffffffffffffffffffffffffffffffffffffffff021916908373ffffffffffffffffffffffffffffffffffffffff160217905550505062000194565b600033905090565b612ba280620001a46000396000f3fe608060405234801561001057600080fd5b50600436106101e55760003560e01c806389995f421161010f578063d7ef5e0f116100a2578063e77b44a511610071578063e77b44a5146107d9578063ef6283d91461081b578063f2fde38b14610839578063f6e6d7881461087d576101e5565b8063d7ef5e0f146106df578063decebbce14610721578063e2abad4714610779578063e6501b4614610797576101e5565b8063a2af4a1a116100de578063a2af4a1a146105c9578063a378d23b14610621578063bc0e8aac14610659578063cddabc331461069d576101e5565b806389995f42146104db5780638c3962201461051f5780638da5cb5b146105615780638f32d59b14610595576101e5565b806352f3368211610187578063715018a611610156578063715018a6146104755780637a80760e1461047f578063817b1cd2146104b357806384b76824146104d1576101e5565b806352f33682146103725780635e6ee3e8146103bb5780635fcbd285146103fd578063693d0df214610431576101e5565b80632a132b0b116101c35780632a132b0b1461029257806336e58dab146102d457806348a1b3be146103025780634d831b2314610344576101e5565b806305334471146101ea5780631e891c0a1461023657806325d5971f14610264575b600080fd5b6102346004803603608081101561020057600080fd5b81019080803590602001909291908035906020019092919080359060200190929190803590602001909291905050506108dc565b005b6102626004803603602081101561024c57600080fd5b8101908080359060200190929190505050610d1d565b005b6102906004803603602081101561027a57600080fd5b8101908080359060200190929190505050610dd6565b005b6102be600480360360208110156102a857600080fd5b810190808035906020019092919050505061105a565b6040518082815260200191505060405180910390f35b610300600480360360208110156102ea57600080fd5b8101908080359060200190929190505050611072565b005b61032e6004803603602081101561031857600080fd5b810190808035906020019092919050505061139e565b6040518082815260200191505060405180910390f35b6103706004803603602081101561035a57600080fd5b81019080803590602001909291905050506113bb565b005b61039e6004803603602081101561038857600080fd5b810190808035906020019092919050505061143b565b604051808381526020018281526020019250505060405180910390f35b6103e7600480360360208110156103d157600080fd5b810190808035906020019092919050505061145f565b6040518082815260200191505060405180910390f35b61040561147c565b604051808273ffffffffffffffffffffffffffffffffffffffff16815260200191505060405180910390f35b6104736004803603602081101561044757600080fd5b81019080803573ffffffffffffffffffffffffffffffffffffffff1690602001909291905050506114a2565b005b61047d61186c565b005b6104876119d9565b604051808273ffffffffffffffffffffffffffffffffffffffff16815260200191505060405180910390f35b6104bb6119ff565b6040518082815260200191505060405180910390f35b6104d9611a05565b005b610507600480360360208110156104f157600080fd5b8101908080359060200190929190505050611ca5565b60405180821515815260200191505060405180910390f35b61054b6004803603602081101561053557600080fd5b8101908080359060200190929190505050611ccf565b6040518082815260200191505060405180910390f35b610569611cf0565b604051808273ffffffffffffffffffffffffffffffffffffffff16815260200191505060405180910390f35b61059d611d19565b604051808273ffffffffffffffffffffffffffffffffffffffff16815260200191505060405180910390f35b61061f600480360360608110156105df57600080fd5b810190808035906020019092919080359060200190929190803573ffffffffffffffffffffffffffffffffffffffff169060200190929190505050611d28565b005b6106576004803603604081101561063757600080fd5b8101908080359060200190929190803590602001909291905050506120d8565b005b6106856004803603602081101561066f57600080fd5b8101908080359060200190929190505050612277565b60405180821515815260200191505060405180910390f35b6106c9600480360360208110156106b357600080fd5b8101908080359060200190929190505050612297565b6040518082815260200191505060405180910390f35b61070b600480360360208110156106f557600080fd5b81019080803590602001909291905050506122e0565b6040518082815260200191505060405180910390f35b6107636004803603602081101561073757600080fd5b81019080803573ffffffffffffffffffffffffffffffffffffffff1690602001909291905050506123c9565b6040518082815260200191505060405180910390f35b610781612563565b6040518082815260200191505060405180910390f35b6107c3600480360360208110156107ad57600080fd5b810190808035906020019092919050505061256d565b6040518082815260200191505060405180910390f35b610805600480360360208110156107ef57600080fd5b8101908080359060200190929190505050612585565b6040518082815260200191505060405180910390f35b610823612604565b6040518082815260200191505060405180910390f35b61087b6004803603602081101561084f57600080fd5b81019080803573ffffffffffffffffffffffffffffffffffffffff16906020019092919050505061260a565b005b6108bf6004803603602081101561089357600080fd5b81019080803573ffffffffffffffffffffffffffffffffffffffff1690602001909291905050506127fc565b604051808381526020018281526020019250505060405180910390f35b6108e4612820565b73ffffffffffffffffffffffffffffffffffffffff16610902611cf0565b73ffffffffffffffffffffffffffffffffffffffff161461098b576040517f08c379a00000000000000000000000000000000000000000000000000000000081526004018080602001828103825260208152602001807f4f776e61626c653a2063616c6c6572206973206e6f7420746865206f776e657281525060200191505060405180910390fd5b6000801b841415610a04576040517f08c379a00000000000000000000000000000000000000000000000000000000081526004018080602001828103825260108152602001807f496e76616c69642050726f746f636f6c0000000000000000000000000000000081525060200191505060405180910390fd5b6000831415610a7b576040517f08c379a000000000000000000000000000000000000000000000000000000000815260040180806020018281038252600d8152602001807f496e76616c69642046756e64730000000000000000000000000000000000000081525060200191505060405180910390fd5b6000821415610af2576040517f08c379a000000000000000000000000000000000000000000000000000000000815260040180806020018281038252600c8152602001807f496e76616c6964205269736b000000000000000000000000000000000000000081525060200191505060405180910390fd5b6040518060400160405280848152602001838152506008600086815260200190815260200160002060008201518160000155602082015181600101559050506009600085815260200190815260200160002060009054906101000a900460ff16610bac5760016009600086815260200190815260200160002060006101000a81548160ff02191690831515021790555060078490806001815401808255809150506001900390600052602060002001600090919091909150555b6000811415610c43576000600a60008681526020019081526020016000205411610c3e576040517f08c379a00000000000000000000000000000000000000000000000000000000081526004018080602001828103825260118152602001807f496e76616c6964206c617374207061696400000000000000000000000000000081525060200191505060405180910390fd5b610d17565b7fffffffffffffffffffffffffffffffffffffffffffffffffffffffffffffffff811415610c885743600a600086815260200190815260200160002081905550610d16565b438110610cfd576040517f08c379a00000000000000000000000000000000000000000000000000000000081526004018080602001828103825260088152602001807f546f6f206869676800000000000000000000000000000000000000000000000081525060200191505060405180910390fd5b80600a6000868152602001908152602001600020819055505b5b50505050565b610d25612820565b73ffffffffffffffffffffffffffffffffffffffff16610d43611cf0565b73ffffffffffffffffffffffffffffffffffffffff1614610dcc576040517f08c379a00000000000000000000000000000000000000000000000000000000081526004018080602001828103825260208152602001807f4f776e61626c653a2063616c6c6572206973206e6f7420746865206f776e657281525060200191505060405180910390fd5b8060068190555050565b6000600c60003373ffffffffffffffffffffffffffffffffffffffff1673ffffffffffffffffffffffffffffffffffffffff1681526020019081526020016000206000015414610e8e576040517f08c379a000000000000000000000000000000000000000000000000000000000815260040180806020018281038252600f8152602001807f576974686472617720616374697665000000000000000000000000000000000081525060200191505060405180910390fd5b600160009054906101000a900473ffffffffffffffffffffffffffffffffffffffff1673ffffffffffffffffffffffffffffffffffffffff166323b872dd3330846040518463ffffffff1660e01b8152600401808473ffffffffffffffffffffffffffffffffffffffff1681526020018373ffffffffffffffffffffffffffffffffffffffff1681526020018281526020019350505050602060405180830381600087803b158015610f3f57600080fd5b505af1158015610f53573d6000803e3d6000fd5b505050506040513d6020811015610f6957600080fd5b8101908080519060200190929190505050610fec576040517f08c379a000000000000000000000000000000000000000000000000000000000815260040180806020018281038252600f8152602001807f5472616e73666572206661696c6564000000000000000000000000000000000081525060200191505060405180910390fd5b604051806040016040528043815260200182815250600c60003373ffffffffffffffffffffffffffffffffffffffff1673ffffffffffffffffffffffffffffffffffffffff168152602001908152602001600020600082015181600001556020820151816001015590505050565b600a6020528060005260406000206000915090505481565b600260009054906101000a900473ffffffffffffffffffffffffffffffffffffffff1673ffffffffffffffffffffffffffffffffffffffff166323b872dd3330846040518463ffffffff1660e01b8152600401808473ffffffffffffffffffffffffffffffffffffffff1681526020018373ffffffffffffffffffffffffffffffffffffffff1681526020018281526020019350505050602060405180830381600087803b15801561112357600080fd5b505af1158015611137573d6000803e3d6000fd5b505050506040513d602081101561114d57600080fd5b81019080805190602001909291905050506111d0576040517f08c379a00000000000000000000000000000000000000000000000000000000081526004018080602001828103825260128152602001807f496e73756666696369656e742066756e6473000000000000000000000000000081525060200191505060405180910390fd5b6111e58160035461282890919063ffffffff16565b6003819055506000600160009054906101000a900473ffffffffffffffffffffffffffffffffffffffff1673ffffffffffffffffffffffffffffffffffffffff166318160ddd6040518163ffffffff1660e01b815260040160206040518083038186803b15801561125557600080fd5b505afa158015611269573d6000803e3d6000fd5b505050506040513d602081101561127f57600080fd5b810190808051906020019092919050505090506000808214156112a4578290506112d3565b6112d06112af612563565b6112c284866128b090919063ffffffff16565b61293690919063ffffffff16565b90505b6112e88360055461282890919063ffffffff16565b600581905550600160009054906101000a900473ffffffffffffffffffffffffffffffffffffffff1673ffffffffffffffffffffffffffffffffffffffff166340c10f1933836040518363ffffffff1660e01b8152600401808373ffffffffffffffffffffffffffffffffffffffff16815260200182815260200192505050600060405180830381600087803b15801561138157600080fd5b505af1158015611395573d6000803e3d6000fd5b50505050505050565b6000600a6000838152602001908152602001600020549050919050565b6113c68160016129bf565b611438576040517f08c379a00000000000000000000000000000000000000000000000000000000081526004018080602001828103825260128152602001807f496e73756666696369656e742066756e6473000000000000000000000000000081525060200191505060405180910390fd5b50565b60086020528060005260406000206000915090508060000154908060010154905082565b6000600b6000838152602001908152602001600020549050919050565b600160009054906101000a900473ffffffffffffffffffffffffffffffffffffffff1681565b6114aa612af1565b600c60008373ffffffffffffffffffffffffffffffffffffffff1673ffffffffffffffffffffffffffffffffffffffff168152602001908152602001600020604051806040016040529081600082015481526020016001820154815250509050600081600001511415611585576040517f08c379a00000000000000000000000000000000000000000000000000000000081526004018080602001828103825260118152602001807f576974686472617720696e61637469766500000000000000000000000000000081525060200191505060405180910390fd5b4361159f600654836000015161282890919063ffffffff16565b1115611613576040517f08c379a000000000000000000000000000000000000000000000000000000000815260040180806020018281038252600f8152602001807f74696d656c6f636b20616374697665000000000000000000000000000000000081525060200191505060405180910390fd5b60006116e7600160009054906101000a900473ffffffffffffffffffffffffffffffffffffffff1673ffffffffffffffffffffffffffffffffffffffff166318160ddd6040518163ffffffff1660e01b815260040160206040518083038186803b15801561168057600080fd5b505afa158015611694573d6000803e3d6000fd5b505050506040513d60208110156116aa57600080fd5b81019080805190602001909291905050506116d96116c6612563565b85602001516128b090919063ffffffff16565b61293690919063ffffffff16565b9050600260009054906101000a900473ffffffffffffffffffffffffffffffffffffffff1673ffffffffffffffffffffffffffffffffffffffff1663a9059cbb84836040518363ffffffff1660e01b8152600401808373ffffffffffffffffffffffffffffffffffffffff16815260200182815260200192505050602060405180830381600087803b15801561177c57600080fd5b505af1158015611790573d6000803e3d6000fd5b505050506040513d60208110156117a657600080fd5b810190808051906020019092919050505050600160009054906101000a900473ffffffffffffffffffffffffffffffffffffffff1673ffffffffffffffffffffffffffffffffffffffff16639dc29fac3084602001516040518363ffffffff1660e01b8152600401808373ffffffffffffffffffffffffffffffffffffffff16815260200182815260200192505050600060405180830381600087803b15801561184f57600080fd5b505af1158015611863573d6000803e3d6000fd5b50505050505050565b611874612820565b73ffffffffffffffffffffffffffffffffffffffff16611892611cf0565b73ffffffffffffffffffffffffffffffffffffffff161461191b576040517f08c379a00000000000000000000000000000000000000000000000000000000081526004018080602001828103825260208152602001807f4f776e61626c653a2063616c6c6572206973206e6f7420746865206f776e657281525060200191505060405180910390fd5b600073ffffffffffffffffffffffffffffffffffffffff1660008054906101000a900473ffffffffffffffffffffffffffffffffffffffff1673ffffffffffffffffffffffffffffffffffffffff167f8be0079c531659141344cd1fd0a4f28419497f9722a3daafe3b4186f6b6457e060405160405180910390a360008060006101000a81548173ffffffffffffffffffffffffffffffffffffffff021916908373ffffffffffffffffffffffffffffffffffffffff160217905550565b600260009054906101000a900473ffffffffffffffffffffffffffffffffffffffff1681565b60035481565b611a0d612af1565b600c60003373ffffffffffffffffffffffffffffffffffffffff1673ffffffffffffffffffffffffffffffffffffffff168152602001908152602001600020604051806040016040529081600082015481526020016001820154815250509050600081600001511415611ae8576040517f08c379a00000000000000000000000000000000000000000000000000000000081526004018080602001828103825260118152602001807f576974686472617720696e61637469766500000000000000000000000000000081525060200191505060405180910390fd5b43611b02600654836000015161282890919063ffffffff16565b11611b75576040517f08c379a00000000000000000000000000000000000000000000000000000000081526004018080602001828103825260108152602001807f54696d656c6f636b20457870697265640000000000000000000000000000000081525060200191505060405180910390fd5b600160009054906101000a900473ffffffffffffffffffffffffffffffffffffffff1673ffffffffffffffffffffffffffffffffffffffff1663a9059cbb3383602001516040518363ffffffff1660e01b8152600401808373ffffffffffffffffffffffffffffffffffffffff16815260200182815260200192505050602060405180830381600087803b158015611c0c57600080fd5b505af1158015611c20573d6000803e3d6000fd5b505050506040513d6020811015611c3657600080fd5b8101908080519060200190929190505050611c5057600080fd5b600c60003373ffffffffffffffffffffffffffffffffffffffff1673ffffffffffffffffffffffffffffffffffffffff1681526020019081526020016000206000808201600090556001820160009055505050565b60006009600083815260200190815260200160002060009054906101000a900460ff169050919050565b60078181548110611cdc57fe5b906000526020600020016000915090505481565b60008060009054906101000a900473ffffffffffffffffffffffffffffffffffffffff16905090565b6000611d23611cf0565b905090565b611d30612820565b73ffffffffffffffffffffffffffffffffffffffff16611d4e611cf0565b73ffffffffffffffffffffffffffffffffffffffff1614611dd7576040517f08c379a00000000000000000000000000000000000000000000000000000000081526004018080602001828103825260208152602001807f4f776e61626c653a2063616c6c6572206973206e6f7420746865206f776e657281525060200191505060405180910390fd5b8260078381548110611de557fe5b906000526020600020015414611e63576040517f08c379a000000000000000000000000000000000000000000000000000000000815260040180806020018281038252600d8152602001807f496e76616c696420696e6465780000000000000000000000000000000000000081525060200191505060405180910390fd5b600260009054906101000a900473ffffffffffffffffffffffffffffffffffffffff1673ffffffffffffffffffffffffffffffffffffffff166323b872dd3083600b6000888152602001908152602001600020546040518463ffffffff1660e01b8152600401808473ffffffffffffffffffffffffffffffffffffffff1681526020018373ffffffffffffffffffffffffffffffffffffffff1681526020018281526020019350505050602060405180830381600087803b158015611f2757600080fd5b505af1158015611f3b573d6000803e3d6000fd5b505050506040513d6020811015611f5157600080fd5b8101908080519060200190929190505050611fd4576040517f08c379a00000000000000000000000000000000000000000000000000000000081526004018080602001828103825260128152602001807f496e73756666696369656e742046756e6473000000000000000000000000000081525060200191505060405180910390fd5b6008600084815260200190815260200160002060008082016000905560018201600090555050600b600084815260200190815260200160002060009055600a60008481526020019081526020016000206000905560006009600085815260200190815260200160002060006101000a81548160ff02191690831515021790555060076001600780549050038154811061206957fe5b90600052602060002001546007838154811061208157fe5b90600052602060002001819055506007600160078054905003815481106120a457fe5b906000526020600020016000905560078054806120bd57fe5b60019003818190600052602060002001600090559055505050565b600260009054906101000a900473ffffffffffffffffffffffffffffffffffffffff1673ffffffffffffffffffffffffffffffffffffffff166323b872dd3330846040518463ffffffff1660e01b8152600401808473ffffffffffffffffffffffffffffffffffffffff1681526020018373ffffffffffffffffffffffffffffffffffffffff1681526020018281526020019350505050602060405180830381600087803b15801561218957600080fd5b505af115801561219d573d6000803e3d6000fd5b505050506040513d60208110156121b357600080fd5b8101908080519060200190929190505050612236576040517f08c379a00000000000000000000000000000000000000000000000000000000081526004018080602001828103825260128152602001807f496e73756666696369656e742066756e6473000000000000000000000000000081525060200191505060405180910390fd5b61225c81600b60008581526020019081526020016000205461282890919063ffffffff16565b600b6000848152602001908152602001600020819055505050565b60096020528060005260406000206000915054906101000a900460ff1681565b60006122d96122a583612585565b6122cb600a60008681526020019081526020016000205443612a6e90919063ffffffff16565b6128b090919063ffffffff16565b9050919050565b60006122ea612b0b565b600860008481526020019081526020016000206040518060400160405290816000820154815260200160018201548152505090506000816000015111612398576040517f08c379a00000000000000000000000000000000000000000000000000000000081526004018080602001828103825260118152602001807f50726f66696c65206e6f7420666f756e6400000000000000000000000000000081525060200191505060405180910390fd5b80600001516123a5612563565b11156123b85780600001519150506123c4565b6123c0612563565b9150505b919050565b600061255c600160009054906101000a900473ffffffffffffffffffffffffffffffffffffffff1673ffffffffffffffffffffffffffffffffffffffff166318160ddd6040518163ffffffff1660e01b815260040160206040518083038186803b15801561243657600080fd5b505afa15801561244a573d6000803e3d6000fd5b505050506040513d602081101561246057600080fd5b810190808051906020019092919050505061254e61247c612563565b600160009054906101000a900473ffffffffffffffffffffffffffffffffffffffff1673ffffffffffffffffffffffffffffffffffffffff166370a08231876040518263ffffffff1660e01b8152600401808273ffffffffffffffffffffffffffffffffffffffff16815260200191505060206040518083038186803b15801561250557600080fd5b505afa158015612519573d6000803e3d6000fd5b505050506040513d602081101561252f57600080fd5b81019080805190602001909291905050506128b090919063ffffffff16565b61293690919063ffffffff16565b9050919050565b6000600554905090565b600b6020528060005260406000206000915090505481565b600061258f612b0b565b600860008481526020019081526020016000206040518060400160405290816000820154815260200160018201548152505090506125fc670de0b6b3a76400006125ee83602001516125e0876122e0565b6128b090919063ffffffff16565b61293690919063ffffffff16565b915050919050565b60045481565b612612612820565b73ffffffffffffffffffffffffffffffffffffffff16612630611cf0565b73ffffffffffffffffffffffffffffffffffffffff16146126b9576040517f08c379a00000000000000000000000000000000000000000000000000000000081526004018080602001828103825260208152602001807f4f776e61626c653a2063616c6c6572206973206e6f7420746865206f776e657281525060200191505060405180910390fd5b600073ffffffffffffffffffffffffffffffffffffffff168173ffffffffffffffffffffffffffffffffffffffff16141561273f576040517f08c379a0000000000000000000000000000000000000000000000000000000008152600401808060200182810382526026815260200180612b266026913960400191505060405180910390fd5b8073ffffffffffffffffffffffffffffffffffffffff1660008054906101000a900473ffffffffffffffffffffffffffffffffffffffff1673ffffffffffffffffffffffffffffffffffffffff167f8be0079c531659141344cd1fd0a4f28419497f9722a3daafe3b4186f6b6457e060405160405180910390a3806000806101000a81548173ffffffffffffffffffffffffffffffffffffffff021916908373ffffffffffffffffffffffffffffffffffffffff16021790555050565b600c6020528060005260406000206000915090508060000154908060010154905082565b600033905090565b6000808284019050838110156128a6576040517f08c379a000000000000000000000000000000000000000000000000000000000815260040180806020018281038252601b8152602001807f536166654d6174683a206164646974696f6e206f766572666c6f77000000000081525060200191505060405180910390fd5b8091505092915050565b6000808314156128c35760009050612930565b60008284029050828482816128d457fe5b041461292b576040517f08c379a0000000000000000000000000000000000000000000000000000000008152600401808060200182810382526021815260200180612b4c6021913960400191505060405180910390fd5b809150505b92915050565b60008082116129ad576040517f08c379a000000000000000000000000000000000000000000000000000000000815260040180806020018281038252601a8152602001807f536166654d6174683a206469766973696f6e206279207a65726f00000000000081525060200191505060405180910390fd5b8183816129b657fe5b04905092915050565b6000806129cb84612297565b9050600b6000858152602001908152602001600020548111156129f2576000915050612a68565b612a1881600b600087815260200190815260200160002054612a6e90919063ffffffff16565b600b600086815260200190815260200160002081905550612a448160055461282890919063ffffffff16565b60058190555043600a60008681526020019081526020016000208190555060019150505b92915050565b600082821115612ae6576040517f08c379a000000000000000000000000000000000000000000000000000000000815260040180806020018281038252601e8152602001807f536166654d6174683a207375627472616374696f6e206f766572666c6f77000081525060200191505060405180910390fd5b818303905092915050565b604051806040016040528060008152602001600081525090565b60405180604001604052806000815260200160008152509056fe4f776e61626c653a206e6577206f776e657220697320746865207a65726f2061646472657373536166654d6174683a206d756c7469706c69636174696f6e206f766572666c6f77a26469706673582212204b091973e0d7c8479bfad8cb6d12f154d6c207523887ca287dc7cdbaea0bf9eb64736f6c63430007030033",
  "linkReferences": {},
  "deployedLinkReferences": {}
}