{
  "_format": "hh-sol-artifact-1",
  "contractName": "MockStrategy",
  "sourceName": "src/backend/contracts/mocks/MockStrategy.sol",
  "abi": [
    {
      "inputs": [],
      "name": "balanceOf",
      "outputs": [
        {
          "internalType": "uint256",
          "name": "",
          "type": "uint256"
        }
      ],
      "stateMutability": "view",
      "type": "function"
    },
    {
      "inputs": [],
      "name": "deposit",
      "outputs": [],
      "stateMutability": "nonpayable",
      "type": "function"
    },
    {
      "inputs": [],
      "name": "depositRevert",
      "outputs": [
        {
          "internalType": "bool",
          "name": "",
          "type": "bool"
        }
      ],
      "stateMutability": "view",
      "type": "function"
    },
    {
      "inputs": [
        {
          "internalType": "bool",
          "name": "_revert",
          "type": "bool"
        }
      ],
      "name": "setDepositRevert",
      "outputs": [],
      "stateMutability": "nonpayable",
      "type": "function"
    },
    {
      "inputs": [
        {
          "internalType": "address",
          "name": "_want",
          "type": "address"
        }
      ],
      "name": "setWant",
      "outputs": [],
      "stateMutability": "nonpayable",
      "type": "function"
    },
    {
      "inputs": [
        {
          "internalType": "uint256",
          "name": "_return",
          "type": "uint256"
        }
      ],
      "name": "setWithdrawAllReturn",
      "outputs": [],
      "stateMutability": "nonpayable",
      "type": "function"
    },
    {
      "inputs": [
        {
          "internalType": "bool",
          "name": "_revert",
          "type": "bool"
        }
      ],
      "name": "setWithdrawAllRevert",
      "outputs": [],
      "stateMutability": "nonpayable",
      "type": "function"
    },
    {
      "inputs": [
        {
          "internalType": "bool",
          "name": "_revert",
          "type": "bool"
        }
      ],
      "name": "setWithdrawRevert",
      "outputs": [],
      "stateMutability": "nonpayable",
      "type": "function"
    },
    {
      "inputs": [],
      "name": "want",
      "outputs": [
        {
          "internalType": "address",
          "name": "",
          "type": "address"
        }
      ],
      "stateMutability": "view",
      "type": "function"
    },
    {
      "inputs": [
        {
          "internalType": "uint256",
          "name": "_amount",
          "type": "uint256"
        }
      ],
      "name": "withdraw",
      "outputs": [],
      "stateMutability": "nonpayable",
      "type": "function"
    },
    {
      "inputs": [
        {
          "internalType": "address",
          "name": "_token",
          "type": "address"
        }
      ],
      "name": "withdraw",
      "outputs": [],
      "stateMutability": "nonpayable",
      "type": "function"
    },
    {
      "inputs": [],
      "name": "withdrawAll",
      "outputs": [
        {
          "internalType": "uint256",
          "name": "",
          "type": "uint256"
        }
      ],
      "stateMutability": "nonpayable",
      "type": "function"
    },
    {
      "inputs": [],
      "name": "withdrawAllReturn",
      "outputs": [
        {
          "internalType": "uint256",
          "name": "",
          "type": "uint256"
        }
      ],
      "stateMutability": "view",
      "type": "function"
    },
    {
      "inputs": [],
      "name": "withdrawAllRevert",
      "outputs": [
        {
          "internalType": "bool",
          "name": "",
          "type": "bool"
        }
      ],
      "stateMutability": "view",
      "type": "function"
    },
    {
      "inputs": [],
      "name": "withdrawRevert",
      "outputs": [
        {
          "internalType": "bool",
          "name": "",
          "type": "bool"
        }
      ],
      "stateMutability": "view",
      "type": "function"
    }
  ],
  "bytecode": "0x608060405260016000806101000a81548173ffffffffffffffffffffffffffffffffffffffff021916908373ffffffffffffffffffffffffffffffffffffffff1602179055507fffffffffffffffffffffffffffffffffffffffffffffffffffffffffffffffff60015534801561007557600080fd5b5061094d806100856000396000f3fe608060405234801561001057600080fd5b50600436106100f55760003560e01c8063853828b611610097578063d0e30db011610066578063d0e30db0146102ec578063dcb895b8146102f6578063edd8e47a14610326578063faa2de2414610346576100f5565b8063853828b6146102505780638afac79f1461026e5780639e2bc4a91461028e578063a788bf2e146102bc576100f5565b806351cff8d9116100d357806351cff8d91461017a5780635edca25b146101be578063722713f71461020257806375efa92614610220576100f5565b806304680528146100fa5780631f1fcd51146101185780632e1a7d4d1461014c575b600080fd5b610102610366565b6040518082815260200191505060405180910390f35b61012061036c565b604051808273ffffffffffffffffffffffffffffffffffffffff16815260200191505060405180910390f35b6101786004803603602081101561016257600080fd5b8101908080359060200190929190505050610390565b005b6101bc6004803603602081101561019057600080fd5b81019080803573ffffffffffffffffffffffffffffffffffffffff1690602001909291905050506104e3565b005b610200600480360360208110156101d457600080fd5b81019080803573ffffffffffffffffffffffffffffffffffffffff169060200190929190505050610551565b005b61020a610594565b6040518082815260200191505060405180910390f35b61024e6004803603602081101561023657600080fd5b8101908080351515906020019092919050505061065e565b005b61025861067b565b6040518082815260200191505060405180910390f35b610276610815565b60405180821515815260200191505060405180910390f35b6102ba600480360360208110156102a457600080fd5b8101908080359060200190929190505050610828565b005b6102ea600480360360208110156102d257600080fd5b81019080803515159060200190929190505050610832565b005b6102f461084f565b005b6103246004803603602081101561030c57600080fd5b810190808035151590602001909291905050506108d4565b005b61032e6108f1565b60405180821515815260200191505060405180910390f35b61034e610904565b60405180821515815260200191505060405180910390f35b60015481565b60008054906101000a900473ffffffffffffffffffffffffffffffffffffffff1681565b600260019054906101000a900460ff1615610413576040517f08c379a000000000000000000000000000000000000000000000000000000000815260040180806020018281038252600f8152602001807f57697468647261775f526576657274000000000000000000000000000000000081525060200191505060405180910390fd5b60008054906101000a900473ffffffffffffffffffffffffffffffffffffffff1673ffffffffffffffffffffffffffffffffffffffff1663a9059cbb33836040518363ffffffff1660e01b8152600401808373ffffffffffffffffffffffffffffffffffffffff16815260200182815260200192505050602060405180830381600087803b1580156104a457600080fd5b505af11580156104b8573d6000803e3d6000fd5b505050506040513d60208110156104ce57600080fd5b81019080805190602001909291905050505050565b6040517f08c379a000000000000000000000000000000000000000000000000000000000815260040180806020018281038252600a8152602001807f4e6f74204d6f636b65640000000000000000000000000000000000000000000081525060200191505060405180910390fd5b806000806101000a81548173ffffffffffffffffffffffffffffffffffffffff021916908373ffffffffffffffffffffffffffffffffffffffff16021790555050565b60008060009054906101000a900473ffffffffffffffffffffffffffffffffffffffff1673ffffffffffffffffffffffffffffffffffffffff166370a08231306040518263ffffffff1660e01b8152600401808273ffffffffffffffffffffffffffffffffffffffff16815260200191505060206040518083038186803b15801561061e57600080fd5b505afa158015610632573d6000803e3d6000fd5b505050506040513d602081101561064857600080fd5b8101908080519060200190929190505050905090565b80600060146101000a81548160ff02191690831515021790555050565b6000600260009054906101000a900460ff1615610700576040517f08c379a00000000000000000000000000000000000000000000000000000000081526004018080602001828103825260138152602001807f57697468647261775f616c6c5f5265766572740000000000000000000000000081525060200191505060405180910390fd5b7fffffffffffffffffffffffffffffffffffffffffffffffffffffffffffffffff60015414610733576001549050610812565b60008054906101000a900473ffffffffffffffffffffffffffffffffffffffff1673ffffffffffffffffffffffffffffffffffffffff1663a9059cbb33610778610594565b6040518363ffffffff1660e01b8152600401808373ffffffffffffffffffffffffffffffffffffffff16815260200182815260200192505050602060405180830381600087803b1580156107cb57600080fd5b505af11580156107df573d6000803e3d6000fd5b505050506040513d60208110156107f557600080fd5b81019080805190602001909291905050505061080f610594565b90505b90565b600260009054906101000a900460ff1681565b8060018190555050565b80600260016101000a81548160ff02191690831515021790555050565b600060149054906101000a900460ff16156108d2576040517f08c379a000000000000000000000000000000000000000000000000000000000815260040180806020018281038252600e8152602001807f4465706f7369745f72657665727400000000000000000000000000000000000081525060200191505060405180910390fd5b565b80600260006101000a81548160ff02191690831515021790555050565b600260019054906101000a900460ff1681565b600060149054906101000a900460ff168156fea2646970667358221220ffec17c0e933bf902792dcc28d0751971ed08c8ddcfdb006ae67f30bdbd48bbb64736f6c63430007030033",
  "linkReferences": {},
  "deployedLinkReferences": {}
}