{
  "_format": "hh-sol-artifact-1",
  "contractName": "PayOut",
  "sourceName": "src/backend/contracts/util/PayOut.sol",
  "abi": [
    {
      "inputs": [
        {
          "internalType": "address",
          "name": "_token",
          "type": "address"
        }
      ],
      "name": "deposit",
      "outputs": [],
      "stateMutability": "nonpayable",
      "type": "function"
    }
  ],
  "bytecode": "0x608060405234801561001057600080fd5b5061015a806100206000396000f3fe608060405234801561001057600080fd5b506004361061002b5760003560e01c8063f340fa0114610030575b600080fd5b6100726004803603602081101561004657600080fd5b81019080803573ffffffffffffffffffffffffffffffffffffffff169060200190929190505050610074565b005b600081905060008173ffffffffffffffffffffffffffffffffffffffff166370a08231306040518263ffffffff1660e01b8152600401808273ffffffffffffffffffffffffffffffffffffffff16815260200191505060206040518083038186803b1580156100e257600080fd5b505afa1580156100f6573d6000803e3d6000fd5b505050506040513d602081101561010c57600080fd5b8101908080519060200190929190505050905050505056fea2646970667358221220c424cb1135e57dc27523384df676d6e9b8e63f3e302ceb3af71abc45e05b69ea64736f6c63430007030033",
  "linkReferences": {},
  "deployedLinkReferences": {}
}